{
	"contracts/ZombieFactory.sol": {
		"ZombieFactory": {
			"abi": [
				{
					"anonymous": false,
					"inputs": [
						{
							"indexed": false,
							"internalType": "uint256",
							"name": "zombieId",
							"type": "uint256"
						},
						{
							"indexed": false,
							"internalType": "string",
							"name": "name",
							"type": "string"
						},
						{
							"indexed": false,
							"internalType": "uint256",
							"name": "dna",
							"type": "uint256"
						}
					],
					"name": "NewZombie",
					"type": "event"
				},
				{
					"anonymous": false,
					"inputs": [
						{
							"indexed": true,
							"internalType": "address",
							"name": "previousOwner",
							"type": "address"
						},
						{
							"indexed": true,
							"internalType": "address",
							"name": "newOwner",
							"type": "address"
						}
					],
					"name": "OwnershipTransferred",
					"type": "event"
				},
				{
					"inputs": [
						{
							"internalType": "string",
							"name": "_name",
							"type": "string"
						}
					],
					"name": "createRandomZombie",
					"outputs": [],
					"stateMutability": "nonpayable",
					"type": "function"
				},
				{
					"inputs": [],
					"name": "owner",
					"outputs": [
						{
							"internalType": "address",
							"name": "",
							"type": "address"
						}
					],
					"stateMutability": "view",
					"type": "function"
				},
				{
					"inputs": [],
					"name": "renounceOwnership",
					"outputs": [],
					"stateMutability": "nonpayable",
					"type": "function"
				},
				{
					"inputs": [
						{
							"internalType": "address",
							"name": "newOwner",
							"type": "address"
						}
					],
					"name": "transferOwnership",
					"outputs": [],
					"stateMutability": "nonpayable",
					"type": "function"
				},
				{
					"inputs": [
						{
							"internalType": "uint256",
							"name": "",
							"type": "uint256"
						}
					],
					"name": "zombieToOwner",
					"outputs": [
						{
							"internalType": "address",
							"name": "",
							"type": "address"
						}
					],
					"stateMutability": "view",
					"type": "function"
				},
				{
					"inputs": [
						{
							"internalType": "uint256",
							"name": "",
							"type": "uint256"
						}
					],
					"name": "zombies",
					"outputs": [
						{
							"internalType": "string",
							"name": "name",
							"type": "string"
						},
						{
							"internalType": "uint256",
							"name": "dna",
							"type": "uint256"
						},
						{
							"internalType": "uint32",
							"name": "level",
							"type": "uint32"
						},
						{
							"internalType": "uint32",
							"name": "readyTime",
							"type": "uint32"
						},
						{
							"internalType": "uint16",
							"name": "winCount",
							"type": "uint16"
						},
						{
							"internalType": "uint16",
							"name": "lossCount",
							"type": "uint16"
						}
					],
					"stateMutability": "view",
					"type": "function"
				}
			],
			"devdoc": {
				"kind": "dev",
				"methods": {
					"owner()": {
						"details": "Returns the address of the current owner."
					},
					"renounceOwnership()": {
						"details": "Leaves the contract without owner. It will not be possible to call `onlyOwner` functions. Can only be called by the current owner. NOTE: Renouncing ownership will leave the contract without an owner, thereby disabling any functionality that is only available to the owner."
					},
					"transferOwnership(address)": {
						"details": "Transfers ownership of the contract to a new account (`newOwner`). Can only be called by the current owner."
					}
				},
				"version": 1
			},
			"evm": {
				"assembly": "    /* \"contracts/ZombieFactory.sol\":312:1648  contract ZombieFactory is Ownable {... */\n  mstore(0x40, 0x80)\n    /* \"contracts/ZombieFactory.sol\":462:464  16 */\n  0x10\n    /* \"contracts/ZombieFactory.sol\":445:464  uint dnaDigits = 16 */\n  0x01\n  dup2\n  swap1\n  sstore\n    /* \"contracts/ZombieFactory.sol\":488:503  10 ** dnaDigits */\n  tag_1\n  swap1\n    /* \"contracts/ZombieFactory.sol\":488:490  10 */\n  0x0a\n    /* \"contracts/ZombieFactory.sol\":488:503  10 ** dnaDigits */\n  tag_2\n  jump\t// in\ntag_1:\n    /* \"contracts/ZombieFactory.sol\":470:503  uint dnaModulus = 10 ** dnaDigits */\n  0x02\n  sstore\n    /* \"contracts/ZombieFactory.sol\":529:535  1 days */\n  0x015180\n    /* \"contracts/ZombieFactory.sol\":509:535  uint cooldownTime = 1 days */\n  0x03\n  sstore\n    /* \"contracts/ZombieFactory.sol\":312:1648  contract ZombieFactory is Ownable {... */\n  callvalue\n  dup1\n  iszero\n  tag_3\n  jumpi\n  0x00\n  dup1\n  revert\ntag_3:\n  pop\n    /* \"https://github.com/OpenZeppelin/openzeppelin-contracts/blob/v4.9.6/contracts/access/Ownable.sol\":936:968  _transferOwnership(_msgSender()) */\n  tag_6\n    /* \"https://github.com/OpenZeppelin/openzeppelin-contracts/blob/v4.9.6/contracts/utils/Context.sol\":734:744  msg.sender */\n  caller\n    /* \"https://github.com/OpenZeppelin/openzeppelin-contracts/blob/v4.9.6/contracts/access/Ownable.sol\":936:954  _transferOwnership */\n  tag_9\n    /* \"https://github.com/OpenZeppelin/openzeppelin-contracts/blob/v4.9.6/contracts/access/Ownable.sol\":936:968  _transferOwnership(_msgSender()) */\n  jump\t// in\ntag_6:\n    /* \"contracts/ZombieFactory.sol\":312:1648  contract ZombieFactory is Ownable {... */\n  jump(tag_16)\n    /* \"https://github.com/OpenZeppelin/openzeppelin-contracts/blob/v4.9.6/contracts/access/Ownable.sol\":2426:2613  function _transferOwnership(address newOwner) internal virtual {... */\ntag_9:\n    /* \"https://github.com/OpenZeppelin/openzeppelin-contracts/blob/v4.9.6/contracts/access/Ownable.sol\":2499:2515  address oldOwner */\n  0x00\n    /* \"https://github.com/OpenZeppelin/openzeppelin-contracts/blob/v4.9.6/contracts/access/Ownable.sol\":2518:2524  _owner */\n  dup1\n  sload\n  sub(shl(0xa0, 0x01), 0x01)\n    /* \"https://github.com/OpenZeppelin/openzeppelin-contracts/blob/v4.9.6/contracts/access/Ownable.sol\":2534:2551  _owner = newOwner */\n  dup4\n  dup2\n  and\n  not(sub(shl(0xa0, 0x01), 0x01))\n  dup4\n  and\n  dup2\n  or\n  dup5\n  sstore\n    /* \"https://github.com/OpenZeppelin/openzeppelin-contracts/blob/v4.9.6/contracts/access/Ownable.sol\":2566:2606  OwnershipTransferred(oldOwner, newOwner) */\n  mload(0x40)\n    /* \"https://github.com/OpenZeppelin/openzeppelin-contracts/blob/v4.9.6/contracts/access/Ownable.sol\":2518:2524  _owner */\n  swap2\n  swap1\n  swap3\n  and\n  swap3\n  dup4\n  swap2\n    /* \"https://github.com/OpenZeppelin/openzeppelin-contracts/blob/v4.9.6/contracts/access/Ownable.sol\":2566:2606  OwnershipTransferred(oldOwner, newOwner) */\n  0x8be0079c531659141344cd1fd0a4f28419497f9722a3daafe3b4186f6b6457e0\n  swap2\n    /* \"https://github.com/OpenZeppelin/openzeppelin-contracts/blob/v4.9.6/contracts/access/Ownable.sol\":2499:2515  address oldOwner */\n  swap1\n    /* \"https://github.com/OpenZeppelin/openzeppelin-contracts/blob/v4.9.6/contracts/access/Ownable.sol\":2566:2606  OwnershipTransferred(oldOwner, newOwner) */\n  log3\n    /* \"https://github.com/OpenZeppelin/openzeppelin-contracts/blob/v4.9.6/contracts/access/Ownable.sol\":2489:2613  {... */\n  pop\n    /* \"https://github.com/OpenZeppelin/openzeppelin-contracts/blob/v4.9.6/contracts/access/Ownable.sol\":2426:2613  function _transferOwnership(address newOwner) internal virtual {... */\n  pop\n  jump\t// out\n    /* \"#utility.yul\":14:141   */\ntag_13:\n    /* \"#utility.yul\":75:85   */\n  0x4e487b71\n    /* \"#utility.yul\":70:73   */\n  0xe0\n    /* \"#utility.yul\":66:86   */\n  shl\n    /* \"#utility.yul\":63:64   */\n  0x00\n    /* \"#utility.yul\":56:87   */\n  mstore\n    /* \"#utility.yul\":106:110   */\n  0x11\n    /* \"#utility.yul\":103:104   */\n  0x04\n    /* \"#utility.yul\":96:111   */\n  mstore\n    /* \"#utility.yul\":130:134   */\n  0x24\n    /* \"#utility.yul\":127:128   */\n  0x00\n    /* \"#utility.yul\":120:135   */\n  revert\n    /* \"#utility.yul\":146:521   */\ntag_14:\n    /* \"#utility.yul\":234:235   */\n  0x01\n    /* \"#utility.yul\":252:257   */\n  dup2\n    /* \"#utility.yul\":266:515   */\ntag_19:\n    /* \"#utility.yul\":287:288   */\n  0x01\n    /* \"#utility.yul\":277:285   */\n  dup5\n    /* \"#utility.yul\":274:289   */\n  gt\n    /* \"#utility.yul\":266:515   */\n  iszero\n  tag_21\n  jumpi\n    /* \"#utility.yul\":337:341   */\n  dup1\n    /* \"#utility.yul\":332:335   */\n  dup6\n    /* \"#utility.yul\":328:342   */\n  div\n    /* \"#utility.yul\":322:326   */\n  dup2\n    /* \"#utility.yul\":319:343   */\n  gt\n    /* \"#utility.yul\":316:366   */\n  iszero\n  tag_23\n  jumpi\n    /* \"#utility.yul\":346:364   */\n  tag_23\n  tag_13\n  jump\t// in\ntag_23:\n    /* \"#utility.yul\":396:397   */\n  0x01\n    /* \"#utility.yul\":386:394   */\n  dup5\n    /* \"#utility.yul\":382:398   */\n  and\n    /* \"#utility.yul\":379:428   */\n  iszero\n  tag_24\n  jumpi\n    /* \"#utility.yul\":410:426   */\n  swap1\n  dup2\n  mul\n  swap1\n    /* \"#utility.yul\":379:428   */\ntag_24:\n    /* \"#utility.yul\":493:494   */\n  0x01\n    /* \"#utility.yul\":489:505   */\n  swap4\n  swap1\n  swap4\n  shr\n  swap3\n    /* \"#utility.yul\":449:464   */\n  dup1\n  mul\n    /* \"#utility.yul\":266:515   */\n  jump(tag_19)\ntag_21:\n    /* \"#utility.yul\":146:521   */\n  swap4\n  pop\n  swap4\n  swap2\n  pop\n  pop\n  jump\t// out\n    /* \"#utility.yul\":526:1428   */\ntag_15:\n    /* \"#utility.yul\":575:580   */\n  0x00\n    /* \"#utility.yul\":605:613   */\n  dup3\n    /* \"#utility.yul\":595:675   */\n  tag_26\n  jumpi\n  pop\n    /* \"#utility.yul\":646:647   */\n  0x01\n    /* \"#utility.yul\":660:665   */\n  jump(tag_25)\n    /* \"#utility.yul\":595:675   */\ntag_26:\n    /* \"#utility.yul\":694:698   */\n  dup2\n    /* \"#utility.yul\":684:760   */\n  tag_27\n  jumpi\n  pop\n    /* \"#utility.yul\":731:732   */\n  0x00\n    /* \"#utility.yul\":745:750   */\n  jump(tag_25)\n    /* \"#utility.yul\":684:760   */\ntag_27:\n    /* \"#utility.yul\":776:780   */\n  dup2\n    /* \"#utility.yul\":794:795   */\n  0x01\n    /* \"#utility.yul\":789:848   */\n  dup2\n  eq\n  tag_29\n  jumpi\n    /* \"#utility.yul\":862:863   */\n  0x02\n    /* \"#utility.yul\":857:1031   */\n  dup2\n  eq\n  tag_30\n  jumpi\n    /* \"#utility.yul\":769:1031   */\n  jump(tag_28)\n    /* \"#utility.yul\":789:848   */\ntag_29:\n    /* \"#utility.yul\":819:820   */\n  0x01\n    /* \"#utility.yul\":810:820   */\n  swap2\n  pop\n    /* \"#utility.yul\":833:838   */\n  pop\n  jump(tag_25)\n    /* \"#utility.yul\":857:1031   */\ntag_30:\n    /* \"#utility.yul\":894:897   */\n  0xff\n    /* \"#utility.yul\":884:892   */\n  dup5\n    /* \"#utility.yul\":881:898   */\n  gt\n    /* \"#utility.yul\":878:921   */\n  iszero\n  tag_32\n  jumpi\n    /* \"#utility.yul\":901:919   */\n  tag_32\n  tag_13\n  jump\t// in\ntag_32:\n  pop\n  pop\n    /* \"#utility.yul\":957:958   */\n  0x01\n    /* \"#utility.yul\":943:959   */\n  dup3\n  shl\n    /* \"#utility.yul\":1016:1021   */\n  jump(tag_25)\n    /* \"#utility.yul\":769:1031   */\ntag_28:\n  pop\n    /* \"#utility.yul\":1115:1117   */\n  0x20\n    /* \"#utility.yul\":1105:1113   */\n  dup4\n    /* \"#utility.yul\":1102:1118   */\n  lt\n    /* \"#utility.yul\":1096:1099   */\n  0x0133\n    /* \"#utility.yul\":1090:1094   */\n  dup4\n    /* \"#utility.yul\":1087:1100   */\n  lt\n    /* \"#utility.yul\":1083:1119   */\n  and\n    /* \"#utility.yul\":1077:1079   */\n  0x4e\n    /* \"#utility.yul\":1067:1075   */\n  dup5\n    /* \"#utility.yul\":1064:1080   */\n  lt\n    /* \"#utility.yul\":1059:1061   */\n  0x0b\n    /* \"#utility.yul\":1053:1057   */\n  dup5\n    /* \"#utility.yul\":1050:1062   */\n  lt\n    /* \"#utility.yul\":1046:1081   */\n  and\n    /* \"#utility.yul\":1043:1120   */\n  or\n    /* \"#utility.yul\":1040:1243   */\n  iszero\n  tag_33\n  jumpi\n  pop\n    /* \"#utility.yul\":1152:1171   */\n  dup2\n  dup2\n  exp\n    /* \"#utility.yul\":1228:1233   */\n  jump(tag_25)\n    /* \"#utility.yul\":1040:1243   */\ntag_33:\n    /* \"#utility.yul\":1275:1317   */\n  tag_34\n  not(0x00)\n    /* \"#utility.yul\":1300:1308   */\n  dup5\n    /* \"#utility.yul\":1294:1298   */\n  dup5\n    /* \"#utility.yul\":1275:1317   */\n  tag_14\n  jump\t// in\ntag_34:\n    /* \"#utility.yul\":1353:1359   */\n  dup1\n    /* \"#utility.yul\":1349:1350   */\n  0x00\n    /* \"#utility.yul\":1345:1351   */\n  not\n    /* \"#utility.yul\":1341:1360   */\n  div\n    /* \"#utility.yul\":1332:1339   */\n  dup3\n    /* \"#utility.yul\":1329:1361   */\n  gt\n    /* \"#utility.yul\":1326:1384   */\n  iszero\n  tag_36\n  jumpi\n    /* \"#utility.yul\":1364:1382   */\n  tag_36\n  tag_13\n  jump\t// in\ntag_36:\n    /* \"#utility.yul\":1402:1422   */\n  mul\n  swap1\n  pop\n    /* \"#utility.yul\":526:1428   */\ntag_25:\n  swap3\n  swap2\n  pop\n  pop\n  jump\t// out\n    /* \"#utility.yul\":1433:1564   */\ntag_2:\n    /* \"#utility.yul\":1493:1498   */\n  0x00\n    /* \"#utility.yul\":1522:1558   */\n  tag_38\n    /* \"#utility.yul\":1549:1557   */\n  dup4\n    /* \"#utility.yul\":1543:1547   */\n  dup4\n    /* \"#utility.yul\":1522:1558   */\n  tag_15\n  jump\t// in\ntag_38:\n    /* \"#utility.yul\":1513:1558   */\n  swap4\n    /* \"#utility.yul\":1433:1564   */\n  swap3\n  pop\n  pop\n  pop\n  jump\t// out\ntag_16:\n    /* \"contracts/ZombieFactory.sol\":312:1648  contract ZombieFactory is Ownable {... */\n  dataSize(sub_0)\n  dup1\n  dataOffset(sub_0)\n  0x00\n  codecopy\n  0x00\n  return\nstop\n\nsub_0: assembly {\n        /* \"contracts/ZombieFactory.sol\":312:1648  contract ZombieFactory is Ownable {... */\n      mstore(0x40, 0x80)\n      callvalue\n      dup1\n      iszero\n      tag_1\n      jumpi\n      0x00\n      dup1\n      revert\n    tag_1:\n      pop\n      jumpi(tag_2, lt(calldatasize, 0x04))\n      shr(0xe0, calldataload(0x00))\n      dup1\n      0x2052465e\n      eq\n      tag_3\n      jumpi\n      dup1\n      0x528b7b8f\n      eq\n      tag_4\n      jumpi\n      dup1\n      0x715018a6\n      eq\n      tag_5\n      jumpi\n      dup1\n      0x7bff0a01\n      eq\n      tag_6\n      jumpi\n      dup1\n      0x8da5cb5b\n      eq\n      tag_7\n      jumpi\n      dup1\n      0xf2fde38b\n      eq\n      tag_8\n      jumpi\n    tag_2:\n      0x00\n      dup1\n      revert\n        /* \"contracts/ZombieFactory.sol\":707:730  Zombie[] public zombies */\n    tag_3:\n      tag_9\n      tag_10\n      calldatasize\n      0x04\n      tag_11\n      jump\t// in\n    tag_10:\n      tag_12\n      jump\t// in\n    tag_9:\n      mload(0x40)\n      tag_13\n      swap7\n      swap6\n      swap5\n      swap4\n      swap3\n      swap2\n      swap1\n      tag_14\n      jump\t// in\n    tag_13:\n      mload(0x40)\n      dup1\n      swap2\n      sub\n      swap1\n      return\n        /* \"contracts/ZombieFactory.sol\":737:783  mapping (uint => address) public zombieToOwner */\n    tag_4:\n      tag_15\n      tag_16\n      calldatasize\n      0x04\n      tag_11\n      jump\t// in\n    tag_16:\n      mstore(0x20, 0x05)\n      0x00\n      swap1\n      dup2\n      mstore\n      0x40\n      swap1\n      keccak256\n      sload\n      sub(shl(0xa0, 0x01), 0x01)\n      and\n      dup2\n      jump\n    tag_15:\n      mload(0x40)\n      sub(shl(0xa0, 0x01), 0x01)\n        /* \"#utility.yul\":1293:1325   */\n      swap1\n      swap2\n      and\n        /* \"#utility.yul\":1275:1326   */\n      dup2\n      mstore\n        /* \"#utility.yul\":1263:1265   */\n      0x20\n        /* \"#utility.yul\":1248:1266   */\n      add\n        /* \"contracts/ZombieFactory.sol\":737:783  mapping (uint => address) public zombieToOwner */\n      tag_13\n        /* \"#utility.yul\":1129:1332   */\n      jump\n        /* \"https://github.com/OpenZeppelin/openzeppelin-contracts/blob/v4.9.6/contracts/access/Ownable.sol\":1824:1925  function renounceOwnership() public virtual onlyOwner {... */\n    tag_5:\n      tag_20\n      tag_21\n      jump\t// in\n    tag_20:\n      stop\n        /* \"contracts/ZombieFactory.sol\":1398:1645  function createRandomZombie(string memory _name) public {... */\n    tag_6:\n      tag_20\n      tag_23\n      calldatasize\n      0x04\n      tag_24\n      jump\t// in\n    tag_23:\n      tag_25\n      jump\t// in\n        /* \"https://github.com/OpenZeppelin/openzeppelin-contracts/blob/v4.9.6/contracts/access/Ownable.sol\":1201:1286  function owner() public view virtual returns (address) {... */\n    tag_7:\n        /* \"https://github.com/OpenZeppelin/openzeppelin-contracts/blob/v4.9.6/contracts/access/Ownable.sol\":1247:1254  address */\n      0x00\n        /* \"https://github.com/OpenZeppelin/openzeppelin-contracts/blob/v4.9.6/contracts/access/Ownable.sol\":1273:1279  _owner */\n      sload\n      sub(shl(0xa0, 0x01), 0x01)\n      and\n        /* \"https://github.com/OpenZeppelin/openzeppelin-contracts/blob/v4.9.6/contracts/access/Ownable.sol\":1201:1286  function owner() public view virtual returns (address) {... */\n      jump(tag_15)\n        /* \"https://github.com/OpenZeppelin/openzeppelin-contracts/blob/v4.9.6/contracts/access/Ownable.sol\":2074:2272  function transferOwnership(address newOwner) public virtual onlyOwner {... */\n    tag_8:\n      tag_20\n      tag_30\n      calldatasize\n      0x04\n      tag_31\n      jump\t// in\n    tag_30:\n      tag_32\n      jump\t// in\n        /* \"contracts/ZombieFactory.sol\":707:730  Zombie[] public zombies */\n    tag_12:\n      0x04\n      dup2\n      dup2\n      sload\n      dup2\n      lt\n      tag_33\n      jumpi\n      0x00\n      dup1\n      revert\n    tag_33:\n      swap1\n      0x00\n      mstore\n      keccak256(0x00, 0x20)\n      swap1\n      0x03\n      mul\n      add\n      0x00\n      swap2\n      pop\n      swap1\n      pop\n      dup1\n      0x00\n      add\n      dup1\n      sload\n      tag_35\n      swap1\n      tag_36\n      jump\t// in\n    tag_35:\n      dup1\n      0x1f\n      add\n      0x20\n      dup1\n      swap2\n      div\n      mul\n      0x20\n      add\n      mload(0x40)\n      swap1\n      dup2\n      add\n      0x40\n      mstore\n      dup1\n      swap3\n      swap2\n      swap1\n      dup2\n      dup2\n      mstore\n      0x20\n      add\n      dup3\n      dup1\n      sload\n      tag_37\n      swap1\n      tag_36\n      jump\t// in\n    tag_37:\n      dup1\n      iszero\n      tag_38\n      jumpi\n      dup1\n      0x1f\n      lt\n      tag_39\n      jumpi\n      0x0100\n      dup1\n      dup4\n      sload\n      div\n      mul\n      dup4\n      mstore\n      swap2\n      0x20\n      add\n      swap2\n      jump(tag_38)\n    tag_39:\n      dup3\n      add\n      swap2\n      swap1\n      0x00\n      mstore\n      keccak256(0x00, 0x20)\n      swap1\n    tag_40:\n      dup2\n      sload\n      dup2\n      mstore\n      swap1\n      0x01\n      add\n      swap1\n      0x20\n      add\n      dup1\n      dup4\n      gt\n      tag_40\n      jumpi\n      dup3\n      swap1\n      sub\n      0x1f\n      and\n      dup3\n      add\n      swap2\n    tag_38:\n      pop\n      pop\n      pop\n      0x01\n      dup5\n      add\n      sload\n      0x02\n      swap1\n      swap5\n      add\n      sload\n      swap3\n      swap4\n      swap3\n      0xffffffff\n      dup1\n      dup3\n      and\n      swap4\n      pop\n      0x0100000000\n      dup3\n      div\n      and\n      swap2\n      pop\n      0xffff\n      shl(0x40, 0x01)\n      dup3\n      div\n      dup2\n      and\n      swap2\n      shl(0x50, 0x01)\n      swap1\n      div\n      and\n      dup7\n      jump\t// out\n        /* \"https://github.com/OpenZeppelin/openzeppelin-contracts/blob/v4.9.6/contracts/access/Ownable.sol\":1824:1925  function renounceOwnership() public virtual onlyOwner {... */\n    tag_21:\n        /* \"https://github.com/OpenZeppelin/openzeppelin-contracts/blob/v4.9.6/contracts/access/Ownable.sol\":1094:1107  _checkOwner() */\n      tag_42\n        /* \"https://github.com/OpenZeppelin/openzeppelin-contracts/blob/v4.9.6/contracts/access/Ownable.sol\":1094:1105  _checkOwner */\n      tag_43\n        /* \"https://github.com/OpenZeppelin/openzeppelin-contracts/blob/v4.9.6/contracts/access/Ownable.sol\":1094:1107  _checkOwner() */\n      jump\t// in\n    tag_42:\n        /* \"https://github.com/OpenZeppelin/openzeppelin-contracts/blob/v4.9.6/contracts/access/Ownable.sol\":1888:1918  _transferOwnership(address(0)) */\n      tag_45\n        /* \"https://github.com/OpenZeppelin/openzeppelin-contracts/blob/v4.9.6/contracts/access/Ownable.sol\":1915:1916  0 */\n      0x00\n        /* \"https://github.com/OpenZeppelin/openzeppelin-contracts/blob/v4.9.6/contracts/access/Ownable.sol\":1888:1906  _transferOwnership */\n      tag_46\n        /* \"https://github.com/OpenZeppelin/openzeppelin-contracts/blob/v4.9.6/contracts/access/Ownable.sol\":1888:1918  _transferOwnership(address(0)) */\n      jump\t// in\n    tag_45:\n        /* \"https://github.com/OpenZeppelin/openzeppelin-contracts/blob/v4.9.6/contracts/access/Ownable.sol\":1824:1925  function renounceOwnership() public virtual onlyOwner {... */\n      jump\t// out\n        /* \"contracts/ZombieFactory.sol\":1398:1645  function createRandomZombie(string memory _name) public {... */\n    tag_25:\n        /* \"contracts/ZombieFactory.sol\":1489:1499  msg.sender */\n      caller\n        /* \"contracts/ZombieFactory.sol\":1472:1500  ownerZombieCount[msg.sender] */\n      0x00\n      swap1\n      dup2\n      mstore\n        /* \"contracts/ZombieFactory.sol\":1472:1488  ownerZombieCount */\n      0x06\n        /* \"contracts/ZombieFactory.sol\":1472:1500  ownerZombieCount[msg.sender] */\n      0x20\n      mstore\n      0x40\n      swap1\n      keccak256\n      sload\n        /* \"contracts/ZombieFactory.sol\":1472:1505  ownerZombieCount[msg.sender] == 0 */\n      iszero\n        /* \"contracts/ZombieFactory.sol\":1464:1506  require(ownerZombieCount[msg.sender] == 0) */\n      tag_48\n      jumpi\n      0x00\n      dup1\n      revert\n    tag_48:\n        /* \"contracts/ZombieFactory.sol\":1516:1528  uint randDna */\n      0x00\n        /* \"contracts/ZombieFactory.sol\":1531:1556  _generateRandomDna(_name) */\n      tag_49\n        /* \"contracts/ZombieFactory.sol\":1550:1555  _name */\n      dup3\n        /* \"contracts/ZombieFactory.sol\":1531:1549  _generateRandomDna */\n      tag_50\n        /* \"contracts/ZombieFactory.sol\":1531:1556  _generateRandomDna(_name) */\n      jump\t// in\n    tag_49:\n        /* \"contracts/ZombieFactory.sol\":1516:1556  uint randDna = _generateRandomDna(_name) */\n      swap1\n      pop\n        /* \"contracts/ZombieFactory.sol\":1586:1599  randDna % 100 */\n      tag_51\n        /* \"contracts/ZombieFactory.sol\":1596:1599  100 */\n      0x64\n        /* \"contracts/ZombieFactory.sol\":1516:1556  uint randDna = _generateRandomDna(_name) */\n      dup3\n        /* \"contracts/ZombieFactory.sol\":1586:1599  randDna % 100 */\n      tag_52\n      jump\t// in\n    tag_51:\n        /* \"contracts/ZombieFactory.sol\":1576:1599  randDna - randDna % 100 */\n      tag_53\n      swap1\n        /* \"contracts/ZombieFactory.sol\":1576:1583  randDna */\n      dup3\n        /* \"contracts/ZombieFactory.sol\":1576:1599  randDna - randDna % 100 */\n      tag_54\n      jump\t// in\n    tag_53:\n        /* \"contracts/ZombieFactory.sol\":1566:1599  randDna = randDna - randDna % 100 */\n      swap1\n      pop\n        /* \"contracts/ZombieFactory.sol\":1609:1638  _createZombie(_name, randDna) */\n      tag_55\n        /* \"contracts/ZombieFactory.sol\":1623:1628  _name */\n      dup3\n        /* \"contracts/ZombieFactory.sol\":1630:1637  randDna */\n      dup3\n        /* \"contracts/ZombieFactory.sol\":1609:1622  _createZombie */\n      tag_56\n        /* \"contracts/ZombieFactory.sol\":1609:1638  _createZombie(_name, randDna) */\n      jump\t// in\n    tag_55:\n        /* \"contracts/ZombieFactory.sol\":1454:1645  {... */\n      pop\n        /* \"contracts/ZombieFactory.sol\":1398:1645  function createRandomZombie(string memory _name) public {... */\n      pop\n      jump\t// out\n        /* \"https://github.com/OpenZeppelin/openzeppelin-contracts/blob/v4.9.6/contracts/access/Ownable.sol\":2074:2272  function transferOwnership(address newOwner) public virtual onlyOwner {... */\n    tag_32:\n        /* \"https://github.com/OpenZeppelin/openzeppelin-contracts/blob/v4.9.6/contracts/access/Ownable.sol\":1094:1107  _checkOwner() */\n      tag_59\n        /* \"https://github.com/OpenZeppelin/openzeppelin-contracts/blob/v4.9.6/contracts/access/Ownable.sol\":1094:1105  _checkOwner */\n      tag_43\n        /* \"https://github.com/OpenZeppelin/openzeppelin-contracts/blob/v4.9.6/contracts/access/Ownable.sol\":1094:1107  _checkOwner() */\n      jump\t// in\n    tag_59:\n      sub(shl(0xa0, 0x01), 0x01)\n        /* \"https://github.com/OpenZeppelin/openzeppelin-contracts/blob/v4.9.6/contracts/access/Ownable.sol\":2162:2184  newOwner != address(0) */\n      dup2\n      and\n        /* \"https://github.com/OpenZeppelin/openzeppelin-contracts/blob/v4.9.6/contracts/access/Ownable.sol\":2154:2227  require(newOwner != address(0), \"Ownable: new owner is the zero address\") */\n      tag_61\n      jumpi\n      mload(0x40)\n      shl(0xe5, 0x461bcd)\n      dup2\n      mstore\n        /* \"#utility.yul\":3776:3778   */\n      0x20\n        /* \"https://github.com/OpenZeppelin/openzeppelin-contracts/blob/v4.9.6/contracts/access/Ownable.sol\":2154:2227  require(newOwner != address(0), \"Ownable: new owner is the zero address\") */\n      0x04\n      dup3\n      add\n        /* \"#utility.yul\":3758:3779   */\n      mstore\n        /* \"#utility.yul\":3815:3817   */\n      0x26\n        /* \"#utility.yul\":3795:3813   */\n      0x24\n      dup3\n      add\n        /* \"#utility.yul\":3788:3818   */\n      mstore\n        /* \"#utility.yul\":3854:3888   */\n      0x4f776e61626c653a206e6577206f776e657220697320746865207a65726f2061\n        /* \"#utility.yul\":3834:3852   */\n      0x44\n      dup3\n      add\n        /* \"#utility.yul\":3827:3889   */\n      mstore\n      shl(0xd0, 0x646472657373)\n        /* \"#utility.yul\":3905:3923   */\n      0x64\n      dup3\n      add\n        /* \"#utility.yul\":3898:3934   */\n      mstore\n        /* \"#utility.yul\":3951:3970   */\n      0x84\n      add\n        /* \"https://github.com/OpenZeppelin/openzeppelin-contracts/blob/v4.9.6/contracts/access/Ownable.sol\":2154:2227  require(newOwner != address(0), \"Ownable: new owner is the zero address\") */\n    tag_62:\n      mload(0x40)\n      dup1\n      swap2\n      sub\n      swap1\n      revert\n    tag_61:\n        /* \"https://github.com/OpenZeppelin/openzeppelin-contracts/blob/v4.9.6/contracts/access/Ownable.sol\":2237:2265  _transferOwnership(newOwner) */\n      tag_64\n        /* \"https://github.com/OpenZeppelin/openzeppelin-contracts/blob/v4.9.6/contracts/access/Ownable.sol\":2256:2264  newOwner */\n      dup2\n        /* \"https://github.com/OpenZeppelin/openzeppelin-contracts/blob/v4.9.6/contracts/access/Ownable.sol\":2237:2255  _transferOwnership */\n      tag_46\n        /* \"https://github.com/OpenZeppelin/openzeppelin-contracts/blob/v4.9.6/contracts/access/Ownable.sol\":2237:2265  _transferOwnership(newOwner) */\n      jump\t// in\n    tag_64:\n        /* \"https://github.com/OpenZeppelin/openzeppelin-contracts/blob/v4.9.6/contracts/access/Ownable.sol\":2074:2272  function transferOwnership(address newOwner) public virtual onlyOwner {... */\n      pop\n      jump\t// out\n        /* \"https://github.com/OpenZeppelin/openzeppelin-contracts/blob/v4.9.6/contracts/access/Ownable.sol\":1359:1489  function _checkOwner() internal view virtual {... */\n    tag_43:\n        /* \"https://github.com/OpenZeppelin/openzeppelin-contracts/blob/v4.9.6/contracts/access/Ownable.sol\":1247:1254  address */\n      0x00\n        /* \"https://github.com/OpenZeppelin/openzeppelin-contracts/blob/v4.9.6/contracts/access/Ownable.sol\":1273:1279  _owner */\n      sload\n      sub(shl(0xa0, 0x01), 0x01)\n      and\n        /* \"https://github.com/OpenZeppelin/openzeppelin-contracts/blob/v4.9.6/contracts/utils/Context.sol\":734:744  msg.sender */\n      caller\n        /* \"https://github.com/OpenZeppelin/openzeppelin-contracts/blob/v4.9.6/contracts/access/Ownable.sol\":1422:1445  owner() == _msgSender() */\n      eq\n        /* \"https://github.com/OpenZeppelin/openzeppelin-contracts/blob/v4.9.6/contracts/access/Ownable.sol\":1414:1482  require(owner() == _msgSender(), \"Ownable: caller is not the owner\") */\n      tag_45\n      jumpi\n      mload(0x40)\n      shl(0xe5, 0x461bcd)\n      dup2\n      mstore\n        /* \"#utility.yul\":4183:4185   */\n      0x20\n        /* \"https://github.com/OpenZeppelin/openzeppelin-contracts/blob/v4.9.6/contracts/access/Ownable.sol\":1414:1482  require(owner() == _msgSender(), \"Ownable: caller is not the owner\") */\n      0x04\n      dup3\n      add\n        /* \"#utility.yul\":4165:4186   */\n      dup2\n      swap1\n      mstore\n        /* \"#utility.yul\":4202:4220   */\n      0x24\n      dup3\n      add\n        /* \"#utility.yul\":4195:4225   */\n      mstore\n        /* \"#utility.yul\":4261:4295   */\n      0x4f776e61626c653a2063616c6c6572206973206e6f7420746865206f776e6572\n        /* \"#utility.yul\":4241:4259   */\n      0x44\n      dup3\n      add\n        /* \"#utility.yul\":4234:4296   */\n      mstore\n        /* \"#utility.yul\":4313:4331   */\n      0x64\n      add\n        /* \"https://github.com/OpenZeppelin/openzeppelin-contracts/blob/v4.9.6/contracts/access/Ownable.sol\":1414:1482  require(owner() == _msgSender(), \"Ownable: caller is not the owner\") */\n      tag_62\n        /* \"#utility.yul\":3981:4337   */\n      jump\n        /* \"https://github.com/OpenZeppelin/openzeppelin-contracts/blob/v4.9.6/contracts/access/Ownable.sol\":2426:2613  function _transferOwnership(address newOwner) internal virtual {... */\n    tag_46:\n        /* \"https://github.com/OpenZeppelin/openzeppelin-contracts/blob/v4.9.6/contracts/access/Ownable.sol\":2499:2515  address oldOwner */\n      0x00\n        /* \"https://github.com/OpenZeppelin/openzeppelin-contracts/blob/v4.9.6/contracts/access/Ownable.sol\":2518:2524  _owner */\n      dup1\n      sload\n      sub(shl(0xa0, 0x01), 0x01)\n        /* \"https://github.com/OpenZeppelin/openzeppelin-contracts/blob/v4.9.6/contracts/access/Ownable.sol\":2534:2551  _owner = newOwner */\n      dup4\n      dup2\n      and\n      not(sub(shl(0xa0, 0x01), 0x01))\n      dup4\n      and\n      dup2\n      or\n      dup5\n      sstore\n        /* \"https://github.com/OpenZeppelin/openzeppelin-contracts/blob/v4.9.6/contracts/access/Ownable.sol\":2566:2606  OwnershipTransferred(oldOwner, newOwner) */\n      mload(0x40)\n        /* \"https://github.com/OpenZeppelin/openzeppelin-contracts/blob/v4.9.6/contracts/access/Ownable.sol\":2518:2524  _owner */\n      swap2\n      swap1\n      swap3\n      and\n      swap3\n      dup4\n      swap2\n        /* \"https://github.com/OpenZeppelin/openzeppelin-contracts/blob/v4.9.6/contracts/access/Ownable.sol\":2566:2606  OwnershipTransferred(oldOwner, newOwner) */\n      0x8be0079c531659141344cd1fd0a4f28419497f9722a3daafe3b4186f6b6457e0\n      swap2\n        /* \"https://github.com/OpenZeppelin/openzeppelin-contracts/blob/v4.9.6/contracts/access/Ownable.sol\":2499:2515  address oldOwner */\n      swap1\n        /* \"https://github.com/OpenZeppelin/openzeppelin-contracts/blob/v4.9.6/contracts/access/Ownable.sol\":2566:2606  OwnershipTransferred(oldOwner, newOwner) */\n      log3\n        /* \"https://github.com/OpenZeppelin/openzeppelin-contracts/blob/v4.9.6/contracts/access/Ownable.sol\":2489:2613  {... */\n      pop\n        /* \"https://github.com/OpenZeppelin/openzeppelin-contracts/blob/v4.9.6/contracts/access/Ownable.sol\":2426:2613  function _transferOwnership(address newOwner) internal virtual {... */\n      pop\n      jump\t// out\n        /* \"contracts/ZombieFactory.sol\":1214:1392  function _generateRandomDna(string memory _str) private view returns (uint) {... */\n    tag_50:\n        /* \"contracts/ZombieFactory.sol\":1284:1288  uint */\n      0x00\n        /* \"contracts/ZombieFactory.sol\":1300:1309  uint rand */\n      dup1\n        /* \"contracts/ZombieFactory.sol\":1344:1348  _str */\n      dup3\n        /* \"contracts/ZombieFactory.sol\":1327:1349  abi.encodePacked(_str) */\n      add(0x20, mload(0x40))\n      tag_74\n      swap2\n      swap1\n      tag_75\n      jump\t// in\n    tag_74:\n      mload(0x40)\n      0x20\n      dup2\n      dup4\n      sub\n      sub\n      dup2\n      mstore\n      swap1\n      0x40\n      mstore\n        /* \"contracts/ZombieFactory.sol\":1317:1350  keccak256(abi.encodePacked(_str)) */\n      dup1\n      mload\n      swap1\n      0x20\n      add\n      keccak256\n        /* \"contracts/ZombieFactory.sol\":1312:1351  uint(keccak256(abi.encodePacked(_str))) */\n      0x00\n      shr\n        /* \"contracts/ZombieFactory.sol\":1300:1351  uint rand = uint(keccak256(abi.encodePacked(_str))) */\n      swap1\n      pop\n        /* \"contracts/ZombieFactory.sol\":1375:1385  dnaModulus */\n      sload(0x02)\n        /* \"contracts/ZombieFactory.sol\":1368:1372  rand */\n      dup2\n        /* \"contracts/ZombieFactory.sol\":1368:1385  rand % dnaModulus */\n      tag_76\n      swap2\n      swap1\n      tag_52\n      jump\t// in\n    tag_76:\n        /* \"contracts/ZombieFactory.sol\":1361:1385  return rand % dnaModulus */\n      swap4\n        /* \"contracts/ZombieFactory.sol\":1214:1392  function _generateRandomDna(string memory _str) private view returns (uint) {... */\n      swap3\n      pop\n      pop\n      pop\n      jump\t// out\n        /* \"contracts/ZombieFactory.sol\":838:1208  function _createZombie(string memory _name, uint _dna) internal {... */\n    tag_56:\n        /* \"contracts/ZombieFactory.sol\":912:919  uint id */\n      0x00\n        /* \"contracts/ZombieFactory.sol\":922:929  zombies */\n      0x04\n        /* \"contracts/ZombieFactory.sol\":922:936  zombies.length */\n      dup1\n      sload\n      swap1\n      pop\n        /* \"contracts/ZombieFactory.sol\":912:936  uint id = zombies.length */\n      swap1\n      pop\n        /* \"contracts/ZombieFactory.sol\":946:953  zombies */\n      0x04\n        /* \"contracts/ZombieFactory.sol\":959:1079  Zombie({name: _name, dna: _dna, level: 1, readyTime: uint32(block.timestamp + cooldownTime), winCount: 0, lossCount: 0}) */\n      mload(0x40)\n      dup1\n      0xc0\n      add\n      0x40\n      mstore\n      dup1\n        /* \"contracts/ZombieFactory.sol\":973:978  _name */\n      dup6\n        /* \"contracts/ZombieFactory.sol\":959:1079  Zombie({name: _name, dna: _dna, level: 1, readyTime: uint32(block.timestamp + cooldownTime), winCount: 0, lossCount: 0}) */\n      dup2\n      mstore\n      0x20\n      add\n        /* \"contracts/ZombieFactory.sol\":985:989  _dna */\n      dup5\n        /* \"contracts/ZombieFactory.sol\":959:1079  Zombie({name: _name, dna: _dna, level: 1, readyTime: uint32(block.timestamp + cooldownTime), winCount: 0, lossCount: 0}) */\n      dup2\n      mstore\n      0x20\n      add\n        /* \"contracts/ZombieFactory.sol\":998:999  1 */\n      0x01\n        /* \"contracts/ZombieFactory.sol\":959:1079  Zombie({name: _name, dna: _dna, level: 1, readyTime: uint32(block.timestamp + cooldownTime), winCount: 0, lossCount: 0}) */\n      0xffffffff\n      and\n      dup2\n      mstore\n      0x20\n      add\n        /* \"contracts/ZombieFactory.sol\":1037:1049  cooldownTime */\n      sload(0x03)\n        /* \"contracts/ZombieFactory.sol\":1019:1034  block.timestamp */\n      timestamp\n        /* \"contracts/ZombieFactory.sol\":1019:1049  block.timestamp + cooldownTime */\n      tag_78\n      swap2\n      swap1\n      tag_79\n      jump\t// in\n    tag_78:\n        /* \"contracts/ZombieFactory.sol\":959:1079  Zombie({name: _name, dna: _dna, level: 1, readyTime: uint32(block.timestamp + cooldownTime), winCount: 0, lossCount: 0}) */\n      0xffffffff\n      and\n      dup2\n      mstore\n        /* \"contracts/ZombieFactory.sol\":1062:1063  0 */\n      0x00\n        /* \"contracts/ZombieFactory.sol\":959:1079  Zombie({name: _name, dna: _dna, level: 1, readyTime: uint32(block.timestamp + cooldownTime), winCount: 0, lossCount: 0}) */\n      0x20\n      dup1\n      dup4\n      add\n      dup3\n      swap1\n      mstore\n      0x40\n      swap1\n      swap3\n      add\n      dup2\n      swap1\n      mstore\n        /* \"contracts/ZombieFactory.sol\":946:1080  zombies.push(Zombie({name: _name, dna: _dna, level: 1, readyTime: uint32(block.timestamp + cooldownTime), winCount: 0, lossCount: 0})) */\n      dup4\n      sload\n      0x01\n      dup2\n      add\n      dup6\n      sstore\n      swap4\n      dup2\n      mstore\n      keccak256\n      dup2\n      mload\n      swap2\n      swap3\n      0x03\n      mul\n      add\n      swap1\n      dup2\n      swap1\n      tag_81\n      swap1\n      dup3\n      tag_82\n      jump\t// in\n    tag_81:\n      pop\n      0x20\n      dup3\n      dup2\n      add\n      mload\n      0x01\n      dup4\n      add\n      sstore\n      0x40\n      dup1\n      dup5\n      add\n      mload\n      0x02\n      swap1\n      swap4\n      add\n      dup1\n      sload\n      0x60\n      dup7\n      add\n      mload\n      0x80\n      dup8\n      add\n      mload\n      0xa0\n      swap1\n      swap8\n      add\n      mload\n      0xffff\n      swap1\n      dup2\n      and\n      shl(0x50, 0x01)\n      mul\n      not(shl(0x50, 0xffff))\n      swap2\n      swap1\n      swap9\n      and\n      shl(0x40, 0x01)\n      mul\n      and\n      not(0xffffffff0000000000000000)\n      0xffffffff\n      swap3\n      dup4\n      and\n      0x0100000000\n      mul\n      not(0xffffffffffffffff)\n      swap1\n      swap5\n      and\n      swap3\n      swap1\n      swap8\n      and\n      swap2\n      swap1\n      swap2\n      or\n      swap2\n      swap1\n      swap2\n      or\n      swap5\n      swap1\n      swap5\n      and\n      swap4\n      swap1\n      swap4\n      or\n      swap4\n      swap1\n      swap4\n      or\n      swap1\n      swap2\n      sstore\n      0x00\n        /* \"contracts/ZombieFactory.sol\":1090:1107  zombieToOwner[id] */\n      dup4\n      dup2\n      mstore\n        /* \"contracts/ZombieFactory.sol\":1090:1103  zombieToOwner */\n      0x05\n        /* \"contracts/ZombieFactory.sol\":1090:1107  zombieToOwner[id] */\n      dup3\n      mstore\n      dup3\n      dup2\n      keccak256\n        /* \"contracts/ZombieFactory.sol\":1090:1120  zombieToOwner[id] = msg.sender */\n      dup1\n      sload\n      not(sub(shl(0xa0, 0x01), 0x01))\n      and\n        /* \"contracts/ZombieFactory.sol\":1110:1120  msg.sender */\n      caller\n        /* \"contracts/ZombieFactory.sol\":1090:1120  zombieToOwner[id] = msg.sender */\n      swap1\n      dup2\n      or\n      swap1\n      swap2\n      sstore\n        /* \"contracts/ZombieFactory.sol\":1130:1158  ownerZombieCount[msg.sender] */\n      dup2\n      mstore\n        /* \"contracts/ZombieFactory.sol\":1130:1146  ownerZombieCount */\n      0x06\n        /* \"contracts/ZombieFactory.sol\":1130:1158  ownerZombieCount[msg.sender] */\n      swap1\n      swap2\n      mstore\n      swap1\n      dup2\n      keccak256\n        /* \"contracts/ZombieFactory.sol\":1130:1160  ownerZombieCount[msg.sender]++ */\n      dup1\n      sload\n      swap2\n      tag_83\n      dup4\n      tag_84\n      jump\t// in\n    tag_83:\n      swap2\n      swap1\n      pop\n      sstore\n      pop\n        /* \"contracts/ZombieFactory.sol\":1175:1201  NewZombie(id, _name, _dna) */\n      0x88f026aacbbecc90c18411df4b1185fd8d9be2470f1962f192bf84a27d0704b7\n        /* \"contracts/ZombieFactory.sol\":1185:1187  id */\n      dup2\n        /* \"contracts/ZombieFactory.sol\":1189:1194  _name */\n      dup5\n        /* \"contracts/ZombieFactory.sol\":1196:1200  _dna */\n      dup5\n        /* \"contracts/ZombieFactory.sol\":1175:1201  NewZombie(id, _name, _dna) */\n      mload(0x40)\n      tag_85\n      swap4\n      swap3\n      swap2\n      swap1\n      tag_86\n      jump\t// in\n    tag_85:\n      mload(0x40)\n      dup1\n      swap2\n      sub\n      swap1\n      log1\n        /* \"contracts/ZombieFactory.sol\":902:1208  {... */\n      pop\n        /* \"contracts/ZombieFactory.sol\":838:1208  function _createZombie(string memory _name, uint _dna) internal {... */\n      pop\n      pop\n      jump\t// out\n        /* \"#utility.yul\":14:194   */\n    tag_11:\n        /* \"#utility.yul\":73:79   */\n      0x00\n        /* \"#utility.yul\":126:128   */\n      0x20\n        /* \"#utility.yul\":114:123   */\n      dup3\n        /* \"#utility.yul\":105:112   */\n      dup5\n        /* \"#utility.yul\":101:124   */\n      sub\n        /* \"#utility.yul\":97:129   */\n      slt\n        /* \"#utility.yul\":94:146   */\n      iszero\n      tag_96\n      jumpi\n        /* \"#utility.yul\":142:143   */\n      0x00\n        /* \"#utility.yul\":139:140   */\n      dup1\n        /* \"#utility.yul\":132:144   */\n      revert\n        /* \"#utility.yul\":94:146   */\n    tag_96:\n      pop\n        /* \"#utility.yul\":165:188   */\n      calldataload\n      swap2\n        /* \"#utility.yul\":14:194   */\n      swap1\n      pop\n      jump\t// out\n        /* \"#utility.yul\":199:488   */\n    tag_88:\n        /* \"#utility.yul\":241:244   */\n      0x00\n        /* \"#utility.yul\":279:284   */\n      dup2\n        /* \"#utility.yul\":273:285   */\n      mload\n        /* \"#utility.yul\":306:312   */\n      dup1\n        /* \"#utility.yul\":301:304   */\n      dup5\n        /* \"#utility.yul\":294:313   */\n      mstore\n        /* \"#utility.yul\":362:368   */\n      dup1\n        /* \"#utility.yul\":355:359   */\n      0x20\n        /* \"#utility.yul\":348:353   */\n      dup5\n        /* \"#utility.yul\":344:360   */\n      add\n        /* \"#utility.yul\":337:341   */\n      0x20\n        /* \"#utility.yul\":332:335   */\n      dup7\n        /* \"#utility.yul\":328:342   */\n      add\n        /* \"#utility.yul\":322:369   */\n      mcopy\n        /* \"#utility.yul\":414:415   */\n      0x00\n        /* \"#utility.yul\":407:411   */\n      0x20\n        /* \"#utility.yul\":398:404   */\n      dup3\n        /* \"#utility.yul\":393:396   */\n      dup7\n        /* \"#utility.yul\":389:405   */\n      add\n        /* \"#utility.yul\":385:412   */\n      add\n        /* \"#utility.yul\":378:416   */\n      mstore\n        /* \"#utility.yul\":477:481   */\n      0x20\n        /* \"#utility.yul\":470:472   */\n      0x1f\n        /* \"#utility.yul\":466:473   */\n      not\n        /* \"#utility.yul\":461:463   */\n      0x1f\n        /* \"#utility.yul\":453:459   */\n      dup4\n        /* \"#utility.yul\":449:464   */\n      add\n        /* \"#utility.yul\":445:474   */\n      and\n        /* \"#utility.yul\":440:443   */\n      dup6\n        /* \"#utility.yul\":436:475   */\n      add\n        /* \"#utility.yul\":432:482   */\n      add\n        /* \"#utility.yul\":425:482   */\n      swap2\n      pop\n      pop\n        /* \"#utility.yul\":199:488   */\n      swap3\n      swap2\n      pop\n      pop\n      jump\t// out\n        /* \"#utility.yul\":493:1124   */\n    tag_14:\n        /* \"#utility.yul\":774:777   */\n      0xc0\n        /* \"#utility.yul\":763:772   */\n      dup2\n        /* \"#utility.yul\":756:778   */\n      mstore\n        /* \"#utility.yul\":737:741   */\n      0x00\n        /* \"#utility.yul\":795:841   */\n      tag_99\n        /* \"#utility.yul\":836:839   */\n      0xc0\n        /* \"#utility.yul\":825:834   */\n      dup4\n        /* \"#utility.yul\":821:840   */\n      add\n        /* \"#utility.yul\":813:819   */\n      dup10\n        /* \"#utility.yul\":795:841   */\n      tag_88\n      jump\t// in\n    tag_99:\n        /* \"#utility.yul\":787:841   */\n      swap1\n      pop\n        /* \"#utility.yul\":877:883   */\n      dup7\n        /* \"#utility.yul\":872:874   */\n      0x20\n        /* \"#utility.yul\":861:870   */\n      dup4\n        /* \"#utility.yul\":857:875   */\n      add\n        /* \"#utility.yul\":850:884   */\n      mstore\n        /* \"#utility.yul\":932:942   */\n      0xffffffff\n        /* \"#utility.yul\":924:930   */\n      dup7\n        /* \"#utility.yul\":920:943   */\n      and\n        /* \"#utility.yul\":915:917   */\n      0x40\n        /* \"#utility.yul\":904:913   */\n      dup4\n        /* \"#utility.yul\":900:918   */\n      add\n        /* \"#utility.yul\":893:944   */\n      mstore\n        /* \"#utility.yul\":992:1002   */\n      0xffffffff\n        /* \"#utility.yul\":984:990   */\n      dup6\n        /* \"#utility.yul\":980:1003   */\n      and\n        /* \"#utility.yul\":975:977   */\n      0x60\n        /* \"#utility.yul\":964:973   */\n      dup4\n        /* \"#utility.yul\":960:978   */\n      add\n        /* \"#utility.yul\":953:1004   */\n      mstore\n        /* \"#utility.yul\":1053:1059   */\n      0xffff\n        /* \"#utility.yul\":1045:1051   */\n      dup5\n        /* \"#utility.yul\":1041:1060   */\n      and\n        /* \"#utility.yul\":1035:1038   */\n      0x80\n        /* \"#utility.yul\":1024:1033   */\n      dup4\n        /* \"#utility.yul\":1020:1039   */\n      add\n        /* \"#utility.yul\":1013:1061   */\n      mstore\n        /* \"#utility.yul\":1110:1116   */\n      0xffff\n        /* \"#utility.yul\":1102:1108   */\n      dup4\n        /* \"#utility.yul\":1098:1117   */\n      and\n        /* \"#utility.yul\":1092:1095   */\n      0xa0\n        /* \"#utility.yul\":1081:1090   */\n      dup4\n        /* \"#utility.yul\":1077:1096   */\n      add\n        /* \"#utility.yul\":1070:1118   */\n      mstore\n        /* \"#utility.yul\":493:1124   */\n      swap8\n      swap7\n      pop\n      pop\n      pop\n      pop\n      pop\n      pop\n      pop\n      jump\t// out\n        /* \"#utility.yul\":1337:1464   */\n    tag_89:\n        /* \"#utility.yul\":1398:1408   */\n      0x4e487b71\n        /* \"#utility.yul\":1393:1396   */\n      0xe0\n        /* \"#utility.yul\":1389:1409   */\n      shl\n        /* \"#utility.yul\":1386:1387   */\n      0x00\n        /* \"#utility.yul\":1379:1410   */\n      mstore\n        /* \"#utility.yul\":1429:1433   */\n      0x41\n        /* \"#utility.yul\":1426:1427   */\n      0x04\n        /* \"#utility.yul\":1419:1434   */\n      mstore\n        /* \"#utility.yul\":1453:1457   */\n      0x24\n        /* \"#utility.yul\":1450:1451   */\n      0x00\n        /* \"#utility.yul\":1443:1458   */\n      revert\n        /* \"#utility.yul\":1469:2414   */\n    tag_24:\n        /* \"#utility.yul\":1538:1544   */\n      0x00\n        /* \"#utility.yul\":1591:1593   */\n      0x20\n        /* \"#utility.yul\":1579:1588   */\n      dup3\n        /* \"#utility.yul\":1570:1577   */\n      dup5\n        /* \"#utility.yul\":1566:1589   */\n      sub\n        /* \"#utility.yul\":1562:1594   */\n      slt\n        /* \"#utility.yul\":1559:1611   */\n      iszero\n      tag_103\n      jumpi\n        /* \"#utility.yul\":1607:1608   */\n      0x00\n        /* \"#utility.yul\":1604:1605   */\n      dup1\n        /* \"#utility.yul\":1597:1609   */\n      revert\n        /* \"#utility.yul\":1559:1611   */\n    tag_103:\n        /* \"#utility.yul\":1647:1656   */\n      dup2\n        /* \"#utility.yul\":1634:1657   */\n      calldataload\n        /* \"#utility.yul\":1680:1698   */\n      0xffffffffffffffff\n        /* \"#utility.yul\":1672:1678   */\n      dup2\n        /* \"#utility.yul\":1669:1699   */\n      gt\n        /* \"#utility.yul\":1666:1716   */\n      iszero\n      tag_104\n      jumpi\n        /* \"#utility.yul\":1712:1713   */\n      0x00\n        /* \"#utility.yul\":1709:1710   */\n      dup1\n        /* \"#utility.yul\":1702:1714   */\n      revert\n        /* \"#utility.yul\":1666:1716   */\n    tag_104:\n        /* \"#utility.yul\":1735:1757   */\n      dup3\n      add\n        /* \"#utility.yul\":1788:1792   */\n      0x1f\n        /* \"#utility.yul\":1780:1793   */\n      dup2\n      add\n        /* \"#utility.yul\":1776:1803   */\n      dup5\n      sgt\n        /* \"#utility.yul\":1766:1821   */\n      tag_105\n      jumpi\n        /* \"#utility.yul\":1817:1818   */\n      0x00\n        /* \"#utility.yul\":1814:1815   */\n      dup1\n        /* \"#utility.yul\":1807:1819   */\n      revert\n        /* \"#utility.yul\":1766:1821   */\n    tag_105:\n        /* \"#utility.yul\":1857:1859   */\n      dup1\n        /* \"#utility.yul\":1844:1860   */\n      calldataload\n        /* \"#utility.yul\":1883:1901   */\n      0xffffffffffffffff\n        /* \"#utility.yul\":1875:1881   */\n      dup2\n        /* \"#utility.yul\":1872:1902   */\n      gt\n        /* \"#utility.yul\":1869:1925   */\n      iszero\n      tag_107\n      jumpi\n        /* \"#utility.yul\":1905:1923   */\n      tag_107\n      tag_89\n      jump\t// in\n    tag_107:\n        /* \"#utility.yul\":1954:1956   */\n      0x40\n        /* \"#utility.yul\":1948:1957   */\n      mload\n        /* \"#utility.yul\":2046:2048   */\n      0x1f\n        /* \"#utility.yul\":2008:2025   */\n      dup3\n      add\n      not(0x1f)\n        /* \"#utility.yul\":2004:2035   */\n      swap1\n      dup2\n      and\n        /* \"#utility.yul\":2037:2039   */\n      0x3f\n        /* \"#utility.yul\":2000:2040   */\n      add\n        /* \"#utility.yul\":1996:2050   */\n      and\n        /* \"#utility.yul\":1984:2051   */\n      dup2\n      add\n        /* \"#utility.yul\":2081:2099   */\n      0xffffffffffffffff\n        /* \"#utility.yul\":2066:2100   */\n      dup2\n      gt\n        /* \"#utility.yul\":2102:2124   */\n      dup3\n      dup3\n      lt\n        /* \"#utility.yul\":2063:2125   */\n      or\n        /* \"#utility.yul\":2060:2148   */\n      iszero\n      tag_109\n      jumpi\n        /* \"#utility.yul\":2128:2146   */\n      tag_109\n      tag_89\n      jump\t// in\n    tag_109:\n        /* \"#utility.yul\":2164:2166   */\n      0x40\n        /* \"#utility.yul\":2157:2179   */\n      mstore\n        /* \"#utility.yul\":2188:2210   */\n      dup2\n      dup2\n      mstore\n        /* \"#utility.yul\":2229:2244   */\n      dup3\n      dup3\n      add\n        /* \"#utility.yul\":2246:2248   */\n      0x20\n        /* \"#utility.yul\":2225:2249   */\n      add\n        /* \"#utility.yul\":2222:2259   */\n      dup7\n      lt\n        /* \"#utility.yul\":2219:2276   */\n      iszero\n      tag_110\n      jumpi\n        /* \"#utility.yul\":2272:2273   */\n      0x00\n        /* \"#utility.yul\":2269:2270   */\n      dup1\n        /* \"#utility.yul\":2262:2274   */\n      revert\n        /* \"#utility.yul\":2219:2276   */\n    tag_110:\n        /* \"#utility.yul\":2328:2334   */\n      dup2\n        /* \"#utility.yul\":2323:2325   */\n      0x20\n        /* \"#utility.yul\":2319:2321   */\n      dup5\n        /* \"#utility.yul\":2315:2326   */\n      add\n        /* \"#utility.yul\":2310:2312   */\n      0x20\n        /* \"#utility.yul\":2302:2308   */\n      dup4\n        /* \"#utility.yul\":2298:2313   */\n      add\n        /* \"#utility.yul\":2285:2335   */\n      calldatacopy\n        /* \"#utility.yul\":2381:2382   */\n      0x00\n        /* \"#utility.yul\":2355:2374   */\n      swap2\n      dup2\n      add\n        /* \"#utility.yul\":2376:2378   */\n      0x20\n        /* \"#utility.yul\":2351:2379   */\n      add\n        /* \"#utility.yul\":2344:2383   */\n      swap2\n      swap1\n      swap2\n      mstore\n        /* \"#utility.yul\":2359:2365   */\n      swap5\n        /* \"#utility.yul\":1469:2414   */\n      swap4\n      pop\n      pop\n      pop\n      pop\n      jump\t// out\n        /* \"#utility.yul\":2419:2705   */\n    tag_31:\n        /* \"#utility.yul\":2478:2484   */\n      0x00\n        /* \"#utility.yul\":2531:2533   */\n      0x20\n        /* \"#utility.yul\":2519:2528   */\n      dup3\n        /* \"#utility.yul\":2510:2517   */\n      dup5\n        /* \"#utility.yul\":2506:2529   */\n      sub\n        /* \"#utility.yul\":2502:2534   */\n      slt\n        /* \"#utility.yul\":2499:2551   */\n      iszero\n      tag_112\n      jumpi\n        /* \"#utility.yul\":2547:2548   */\n      0x00\n        /* \"#utility.yul\":2544:2545   */\n      dup1\n        /* \"#utility.yul\":2537:2549   */\n      revert\n        /* \"#utility.yul\":2499:2551   */\n    tag_112:\n        /* \"#utility.yul\":2573:2596   */\n      dup2\n      calldataload\n      sub(shl(0xa0, 0x01), 0x01)\n        /* \"#utility.yul\":2625:2656   */\n      dup2\n      and\n        /* \"#utility.yul\":2615:2657   */\n      dup2\n      eq\n        /* \"#utility.yul\":2605:2675   */\n      tag_76\n      jumpi\n        /* \"#utility.yul\":2671:2672   */\n      0x00\n        /* \"#utility.yul\":2668:2669   */\n      dup1\n        /* \"#utility.yul\":2661:2673   */\n      revert\n        /* \"#utility.yul\":2710:3090   */\n    tag_36:\n        /* \"#utility.yul\":2789:2790   */\n      0x01\n        /* \"#utility.yul\":2785:2797   */\n      dup2\n      dup2\n      shr\n      swap1\n        /* \"#utility.yul\":2832:2844   */\n      dup3\n      and\n      dup1\n        /* \"#utility.yul\":2853:2914   */\n      tag_115\n      jumpi\n        /* \"#utility.yul\":2907:2911   */\n      0x7f\n        /* \"#utility.yul\":2899:2905   */\n      dup3\n        /* \"#utility.yul\":2895:2912   */\n      and\n        /* \"#utility.yul\":2885:2912   */\n      swap2\n      pop\n        /* \"#utility.yul\":2853:2914   */\n    tag_115:\n        /* \"#utility.yul\":2960:2962   */\n      0x20\n        /* \"#utility.yul\":2952:2958   */\n      dup3\n        /* \"#utility.yul\":2949:2963   */\n      lt\n        /* \"#utility.yul\":2929:2947   */\n      dup2\n        /* \"#utility.yul\":2926:2964   */\n      sub\n        /* \"#utility.yul\":2923:3084   */\n      tag_116\n      jumpi\n        /* \"#utility.yul\":3006:3016   */\n      0x4e487b71\n        /* \"#utility.yul\":3001:3004   */\n      0xe0\n        /* \"#utility.yul\":2997:3017   */\n      shl\n        /* \"#utility.yul\":2994:2995   */\n      0x00\n        /* \"#utility.yul\":2987:3018   */\n      mstore\n        /* \"#utility.yul\":3041:3045   */\n      0x22\n        /* \"#utility.yul\":3038:3039   */\n      0x04\n        /* \"#utility.yul\":3031:3046   */\n      mstore\n        /* \"#utility.yul\":3069:3073   */\n      0x24\n        /* \"#utility.yul\":3066:3067   */\n      0x00\n        /* \"#utility.yul\":3059:3074   */\n      revert\n        /* \"#utility.yul\":2923:3084   */\n    tag_116:\n      pop\n        /* \"#utility.yul\":2710:3090   */\n      swap2\n      swap1\n      pop\n      jump\t// out\n        /* \"#utility.yul\":3095:3304   */\n    tag_52:\n        /* \"#utility.yul\":3127:3128   */\n      0x00\n        /* \"#utility.yul\":3153:3154   */\n      dup3\n        /* \"#utility.yul\":3143:3275   */\n      tag_118\n      jumpi\n        /* \"#utility.yul\":3197:3207   */\n      0x4e487b71\n        /* \"#utility.yul\":3192:3195   */\n      0xe0\n        /* \"#utility.yul\":3188:3208   */\n      shl\n        /* \"#utility.yul\":3185:3186   */\n      0x00\n        /* \"#utility.yul\":3178:3209   */\n      mstore\n        /* \"#utility.yul\":3232:3236   */\n      0x12\n        /* \"#utility.yul\":3229:3230   */\n      0x04\n        /* \"#utility.yul\":3222:3237   */\n      mstore\n        /* \"#utility.yul\":3260:3264   */\n      0x24\n        /* \"#utility.yul\":3257:3258   */\n      0x00\n        /* \"#utility.yul\":3250:3265   */\n      revert\n        /* \"#utility.yul\":3143:3275   */\n    tag_118:\n      pop\n        /* \"#utility.yul\":3289:3298   */\n      mod\n      swap1\n        /* \"#utility.yul\":3095:3304   */\n      jump\t// out\n        /* \"#utility.yul\":3309:3436   */\n    tag_90:\n        /* \"#utility.yul\":3370:3380   */\n      0x4e487b71\n        /* \"#utility.yul\":3365:3368   */\n      0xe0\n        /* \"#utility.yul\":3361:3381   */\n      shl\n        /* \"#utility.yul\":3358:3359   */\n      0x00\n        /* \"#utility.yul\":3351:3382   */\n      mstore\n        /* \"#utility.yul\":3401:3405   */\n      0x11\n        /* \"#utility.yul\":3398:3399   */\n      0x04\n        /* \"#utility.yul\":3391:3406   */\n      mstore\n        /* \"#utility.yul\":3425:3429   */\n      0x24\n        /* \"#utility.yul\":3422:3423   */\n      0x00\n        /* \"#utility.yul\":3415:3430   */\n      revert\n        /* \"#utility.yul\":3441:3569   */\n    tag_54:\n        /* \"#utility.yul\":3508:3517   */\n      dup2\n      dup2\n      sub\n        /* \"#utility.yul\":3529:3540   */\n      dup2\n      dup2\n      gt\n        /* \"#utility.yul\":3526:3563   */\n      iszero\n      tag_122\n      jumpi\n        /* \"#utility.yul\":3543:3561   */\n      tag_122\n      tag_90\n      jump\t// in\n    tag_122:\n        /* \"#utility.yul\":3441:3569   */\n      swap3\n      swap2\n      pop\n      pop\n      jump\t// out\n        /* \"#utility.yul\":4342:4645   */\n    tag_75:\n        /* \"#utility.yul\":4473:4476   */\n      0x00\n        /* \"#utility.yul\":4511:4517   */\n      dup3\n        /* \"#utility.yul\":4505:4518   */\n      mload\n        /* \"#utility.yul\":4557:4563   */\n      dup1\n        /* \"#utility.yul\":4550:4554   */\n      0x20\n        /* \"#utility.yul\":4542:4548   */\n      dup6\n        /* \"#utility.yul\":4538:4555   */\n      add\n        /* \"#utility.yul\":4533:4536   */\n      dup5\n        /* \"#utility.yul\":4527:4564   */\n      mcopy\n        /* \"#utility.yul\":4619:4620   */\n      0x00\n        /* \"#utility.yul\":4583:4599   */\n      swap3\n      add\n        /* \"#utility.yul\":4608:4621   */\n      swap2\n      dup3\n      mstore\n      pop\n        /* \"#utility.yul\":4583:4599   */\n      swap2\n        /* \"#utility.yul\":4342:4645   */\n      swap1\n      pop\n      jump\t// out\n        /* \"#utility.yul\":4650:4775   */\n    tag_79:\n        /* \"#utility.yul\":4715:4724   */\n      dup1\n      dup3\n      add\n        /* \"#utility.yul\":4736:4746   */\n      dup1\n      dup3\n      gt\n        /* \"#utility.yul\":4733:4769   */\n      iszero\n      tag_122\n      jumpi\n        /* \"#utility.yul\":4749:4767   */\n      tag_122\n      tag_90\n      jump\t// in\n        /* \"#utility.yul\":4906:5424   */\n    tag_92:\n        /* \"#utility.yul\":5008:5010   */\n      0x1f\n        /* \"#utility.yul\":5003:5006   */\n      dup3\n        /* \"#utility.yul\":5000:5011   */\n      gt\n        /* \"#utility.yul\":4997:5418   */\n      iszero\n      tag_131\n      jumpi\n        /* \"#utility.yul\":5044:5049   */\n      dup1\n        /* \"#utility.yul\":5041:5042   */\n      0x00\n        /* \"#utility.yul\":5034:5050   */\n      mstore\n        /* \"#utility.yul\":5088:5092   */\n      0x20\n        /* \"#utility.yul\":5085:5086   */\n      0x00\n        /* \"#utility.yul\":5075:5093   */\n      keccak256\n        /* \"#utility.yul\":5158:5160   */\n      0x1f\n        /* \"#utility.yul\":5146:5156   */\n      dup5\n        /* \"#utility.yul\":5142:5161   */\n      add\n        /* \"#utility.yul\":5139:5140   */\n      0x05\n        /* \"#utility.yul\":5135:5162   */\n      shr\n        /* \"#utility.yul\":5129:5133   */\n      dup2\n        /* \"#utility.yul\":5125:5163   */\n      add\n        /* \"#utility.yul\":5194:5198   */\n      0x20\n        /* \"#utility.yul\":5182:5192   */\n      dup6\n        /* \"#utility.yul\":5179:5199   */\n      lt\n        /* \"#utility.yul\":5176:5223   */\n      iszero\n      tag_132\n      jumpi\n      pop\n        /* \"#utility.yul\":5217:5221   */\n      dup1\n        /* \"#utility.yul\":5176:5223   */\n    tag_132:\n        /* \"#utility.yul\":5272:5274   */\n      0x1f\n        /* \"#utility.yul\":5267:5270   */\n      dup5\n        /* \"#utility.yul\":5263:5275   */\n      add\n        /* \"#utility.yul\":5260:5261   */\n      0x05\n        /* \"#utility.yul\":5256:5276   */\n      shr\n        /* \"#utility.yul\":5250:5254   */\n      dup3\n        /* \"#utility.yul\":5246:5277   */\n      add\n        /* \"#utility.yul\":5236:5277   */\n      swap2\n      pop\n        /* \"#utility.yul\":5327:5408   */\n    tag_133:\n        /* \"#utility.yul\":5345:5347   */\n      dup2\n        /* \"#utility.yul\":5338:5343   */\n      dup2\n        /* \"#utility.yul\":5335:5348   */\n      lt\n        /* \"#utility.yul\":5327:5408   */\n      iszero\n      tag_135\n      jumpi\n        /* \"#utility.yul\":5404:5405   */\n      0x00\n        /* \"#utility.yul\":5390:5406   */\n      dup2\n      sstore\n        /* \"#utility.yul\":5371:5372   */\n      0x01\n        /* \"#utility.yul\":5360:5373   */\n      add\n        /* \"#utility.yul\":5327:5408   */\n      jump(tag_133)\n    tag_135:\n        /* \"#utility.yul\":5331:5334   */\n      pop\n      pop\n        /* \"#utility.yul\":4997:5418   */\n    tag_131:\n        /* \"#utility.yul\":4906:5424   */\n      pop\n      pop\n      pop\n      jump\t// out\n        /* \"#utility.yul\":5600:6899   */\n    tag_82:\n        /* \"#utility.yul\":5726:5729   */\n      dup2\n        /* \"#utility.yul\":5720:5730   */\n      mload\n        /* \"#utility.yul\":5753:5771   */\n      0xffffffffffffffff\n        /* \"#utility.yul\":5745:5751   */\n      dup2\n        /* \"#utility.yul\":5742:5772   */\n      gt\n        /* \"#utility.yul\":5739:5795   */\n      iszero\n      tag_139\n      jumpi\n        /* \"#utility.yul\":5775:5793   */\n      tag_139\n      tag_89\n      jump\t// in\n    tag_139:\n        /* \"#utility.yul\":5804:5901   */\n      tag_140\n        /* \"#utility.yul\":5894:5900   */\n      dup2\n        /* \"#utility.yul\":5854:5892   */\n      tag_141\n        /* \"#utility.yul\":5886:5890   */\n      dup5\n        /* \"#utility.yul\":5880:5891   */\n      sload\n        /* \"#utility.yul\":5854:5892   */\n      tag_36\n      jump\t// in\n    tag_141:\n        /* \"#utility.yul\":5848:5852   */\n      dup5\n        /* \"#utility.yul\":5804:5901   */\n      tag_92\n      jump\t// in\n    tag_140:\n        /* \"#utility.yul\":5950:5954   */\n      0x20\n        /* \"#utility.yul\":5981:5983   */\n      0x1f\n        /* \"#utility.yul\":5970:5984   */\n      dup3\n      gt\n        /* \"#utility.yul\":5998:5999   */\n      0x01\n        /* \"#utility.yul\":5993:6642   */\n      dup2\n      eq\n      tag_143\n      jumpi\n        /* \"#utility.yul\":6686:6687   */\n      0x00\n        /* \"#utility.yul\":6703:6709   */\n      dup4\n        /* \"#utility.yul\":6700:6789   */\n      iszero\n      tag_144\n      jumpi\n      pop\n        /* \"#utility.yul\":6755:6774   */\n      dup5\n      dup3\n      add\n        /* \"#utility.yul\":6749:6775   */\n      mload\n        /* \"#utility.yul\":6700:6789   */\n    tag_144:\n      not(0x00)\n        /* \"#utility.yul\":5557:5558   */\n      0x03\n        /* \"#utility.yul\":5553:5564   */\n      dup6\n      swap1\n      shl\n        /* \"#utility.yul\":5549:5573   */\n      shr\n        /* \"#utility.yul\":5545:5574   */\n      not\n        /* \"#utility.yul\":5535:5575   */\n      and\n        /* \"#utility.yul\":5581:5582   */\n      0x01\n        /* \"#utility.yul\":5577:5588   */\n      dup5\n      swap1\n      shl\n        /* \"#utility.yul\":5532:5589   */\n      or\n        /* \"#utility.yul\":6802:6883   */\n      dup5\n      sstore\n        /* \"#utility.yul\":5963:6893   */\n      jump(tag_135)\n        /* \"#utility.yul\":5993:6642   */\n    tag_143:\n        /* \"#utility.yul\":4853:4854   */\n      0x00\n        /* \"#utility.yul\":4846:4860   */\n      dup5\n      dup2\n      mstore\n        /* \"#utility.yul\":4890:4894   */\n      0x20\n        /* \"#utility.yul\":4877:4895   */\n      dup2\n      keccak256\n      not(0x1f)\n        /* \"#utility.yul\":6029:6049   */\n      dup6\n      and\n      swap2\n        /* \"#utility.yul\":6147:6369   */\n    tag_147:\n        /* \"#utility.yul\":6161:6168   */\n      dup3\n        /* \"#utility.yul\":6158:6159   */\n      dup2\n        /* \"#utility.yul\":6155:6169   */\n      lt\n        /* \"#utility.yul\":6147:6369   */\n      iszero\n      tag_149\n      jumpi\n        /* \"#utility.yul\":6243:6262   */\n      dup8\n      dup6\n      add\n        /* \"#utility.yul\":6237:6263   */\n      mload\n        /* \"#utility.yul\":6222:6264   */\n      dup3\n      sstore\n        /* \"#utility.yul\":6350:6354   */\n      0x20\n        /* \"#utility.yul\":6335:6355   */\n      swap5\n      dup6\n      add\n      swap5\n        /* \"#utility.yul\":6303:6304   */\n      0x01\n        /* \"#utility.yul\":6291:6305   */\n      swap1\n      swap3\n      add\n      swap2\n        /* \"#utility.yul\":6177:6189   */\n      add\n        /* \"#utility.yul\":6147:6369   */\n      jump(tag_147)\n    tag_149:\n        /* \"#utility.yul\":6151:6154   */\n      pop\n        /* \"#utility.yul\":6397:6403   */\n      dup5\n        /* \"#utility.yul\":6388:6395   */\n      dup3\n        /* \"#utility.yul\":6385:6404   */\n      lt\n        /* \"#utility.yul\":6382:6583   */\n      iszero\n      tag_150\n      jumpi\n        /* \"#utility.yul\":6458:6477   */\n      dup7\n      dup5\n      add\n        /* \"#utility.yul\":6452:6478   */\n      mload\n      not(0x00)\n        /* \"#utility.yul\":6541:6542   */\n      0x03\n        /* \"#utility.yul\":6537:6551   */\n      dup8\n      swap1\n      shl\n        /* \"#utility.yul\":6553:6556   */\n      0xf8\n        /* \"#utility.yul\":6533:6557   */\n      and\n        /* \"#utility.yul\":6529:6566   */\n      shr\n        /* \"#utility.yul\":6525:6567   */\n      not\n        /* \"#utility.yul\":6510:6568   */\n      and\n        /* \"#utility.yul\":6495:6569   */\n      dup2\n      sstore\n        /* \"#utility.yul\":6382:6583   */\n    tag_150:\n      pop\n      pop\n      pop\n      pop\n        /* \"#utility.yul\":6629:6630   */\n      0x01\n        /* \"#utility.yul\":6613:6627   */\n      swap1\n      dup2\n      shl\n        /* \"#utility.yul\":6609:6631   */\n      add\n        /* \"#utility.yul\":6596:6632   */\n      swap1\n      sstore\n      pop\n        /* \"#utility.yul\":5600:6899   */\n      jump\t// out\n        /* \"#utility.yul\":6904:7039   */\n    tag_84:\n        /* \"#utility.yul\":6943:6946   */\n      0x00\n        /* \"#utility.yul\":6964:6981   */\n      0x01\n      dup3\n      add\n        /* \"#utility.yul\":6961:7004   */\n      tag_153\n      jumpi\n        /* \"#utility.yul\":6984:7002   */\n      tag_153\n      tag_90\n      jump\t// in\n    tag_153:\n      pop\n        /* \"#utility.yul\":7031:7032   */\n      0x01\n        /* \"#utility.yul\":7020:7033   */\n      add\n      swap1\n        /* \"#utility.yul\":6904:7039   */\n      jump\t// out\n        /* \"#utility.yul\":7044:7406   */\n    tag_86:\n        /* \"#utility.yul\":7249:7255   */\n      dup4\n        /* \"#utility.yul\":7238:7247   */\n      dup2\n        /* \"#utility.yul\":7231:7256   */\n      mstore\n        /* \"#utility.yul\":7292:7294   */\n      0x60\n        /* \"#utility.yul\":7287:7289   */\n      0x20\n        /* \"#utility.yul\":7276:7285   */\n      dup3\n        /* \"#utility.yul\":7272:7290   */\n      add\n        /* \"#utility.yul\":7265:7295   */\n      mstore\n        /* \"#utility.yul\":7212:7216   */\n      0x00\n        /* \"#utility.yul\":7312:7357   */\n      tag_155\n        /* \"#utility.yul\":7353:7355   */\n      0x60\n        /* \"#utility.yul\":7342:7351   */\n      dup4\n        /* \"#utility.yul\":7338:7356   */\n      add\n        /* \"#utility.yul\":7330:7336   */\n      dup6\n        /* \"#utility.yul\":7312:7357   */\n      tag_88\n      jump\t// in\n    tag_155:\n        /* \"#utility.yul\":7304:7357   */\n      swap1\n      pop\n        /* \"#utility.yul\":7393:7399   */\n      dup3\n        /* \"#utility.yul\":7388:7390   */\n      0x40\n        /* \"#utility.yul\":7377:7386   */\n      dup4\n        /* \"#utility.yul\":7373:7391   */\n      add\n        /* \"#utility.yul\":7366:7400   */\n      mstore\n        /* \"#utility.yul\":7044:7406   */\n      swap5\n      swap4\n      pop\n      pop\n      pop\n      pop\n      jump\t// out\n\n    auxdata: 0xa2646970667358221220ee34c05ca04343e0607809b00896d9d22977f9d636769405771cfc38da3f8c9764736f6c634300081a0033\n}\n",
				"bytecode": {
					"linkReferences": {},
					"object": "60806040526010600181905561001690600a610182565b6002556201518060035534801561002b575f80fd5b506100353361003a565b610194565b5f80546001600160a01b038381166001600160a01b0319831681178455604051919092169283917f8be0079c531659141344cd1fd0a4f28419497f9722a3daafe3b4186f6b6457e09190a35050565b634e487b7160e01b5f52601160045260245ffd5b6001815b60018411156100d8578085048111156100bc576100bc610089565b60018416156100ca57908102905b60019390931c9280026100a1565b935093915050565b5f826100ee5750600161017c565b816100fa57505f61017c565b8160018114610110576002811461011a57610136565b600191505061017c565b60ff84111561012b5761012b610089565b50506001821b61017c565b5060208310610133831016604e8410600b8410161715610159575081810a61017c565b6101655f19848461009d565b805f190482111561017857610178610089565b0290505b92915050565b5f61018d83836100e0565b9392505050565b6108e2806101a15f395ff3fe608060405234801561000f575f80fd5b5060043610610060575f3560e01c80632052465e14610064578063528b7b8f14610092578063715018a6146100d25780637bff0a01146100dc5780638da5cb5b146100ef578063f2fde38b146100ff575b5f80fd5b610077610072366004610535565b610112565b6040516100899695949392919061057a565b60405180910390f35b6100ba6100a0366004610535565b60056020525f90815260409020546001600160a01b031681565b6040516001600160a01b039091168152602001610089565b6100da6101f5565b005b6100da6100ea3660046105df565b610208565b5f546001600160a01b03166100ba565b6100da61010d366004610692565b610251565b60048181548110610121575f80fd5b905f5260205f2090600302015f91509050805f018054610140906106b8565b80601f016020809104026020016040519081016040528092919081815260200182805461016c906106b8565b80156101b75780601f1061018e576101008083540402835291602001916101b7565b820191905f5260205f20905b81548152906001019060200180831161019a57829003601f168201915b505050600184015460029094015492939263ffffffff8082169350640100000000820416915061ffff600160401b8204811691600160501b90041686565b6101fd6102cf565b6102065f610328565b565b335f9081526006602052604090205415610220575f80fd5b5f61022a82610377565b90506102376064826106f0565b6102419082610723565b905061024d82826103b9565b5050565b6102596102cf565b6001600160a01b0381166102c35760405162461bcd60e51b815260206004820152602660248201527f4f776e61626c653a206e6577206f776e657220697320746865207a65726f206160448201526564647265737360d01b60648201526084015b60405180910390fd5b6102cc81610328565b50565b5f546001600160a01b031633146102065760405162461bcd60e51b815260206004820181905260248201527f4f776e61626c653a2063616c6c6572206973206e6f7420746865206f776e657260448201526064016102ba565b5f80546001600160a01b038381166001600160a01b0319831681178455604051919092169283917f8be0079c531659141344cd1fd0a4f28419497f9722a3daafe3b4186f6b6457e09190a35050565b5f808260405160200161038a919061073c565b604051602081830303815290604052805190602001205f1c9050600254816103b291906106f0565b9392505050565b5f600480549050905060046040518060c00160405280858152602001848152602001600163ffffffff168152602001600354426103f69190610752565b63ffffffff1681525f60208083018290526040909201819052835460018101855593815220815191926003020190819061043090826107b1565b506020828101516001830155604080840151600290930180546060860151608087015160a09097015161ffff908116600160501b0261ffff60501b1991909816600160401b02166bffffffff00000000000000001963ffffffff9283166401000000000267ffffffffffffffff199094169290971691909117919091179490941693909317939093179091555f8381526005825282812080546001600160a01b03191633908117909155815260069091529081208054916104f08361086c565b91905055507f88f026aacbbecc90c18411df4b1185fd8d9be2470f1962f192bf84a27d0704b781848460405161052893929190610884565b60405180910390a1505050565b5f60208284031215610545575f80fd5b5035919050565b5f81518084528060208401602086015e5f602082860101526020601f19601f83011685010191505092915050565b60c081525f61058c60c083018961054c565b905086602083015263ffffffff8616604083015263ffffffff8516606083015261ffff8416608083015261ffff831660a0830152979650505050505050565b634e487b7160e01b5f52604160045260245ffd5b5f602082840312156105ef575f80fd5b813567ffffffffffffffff811115610605575f80fd5b8201601f81018413610615575f80fd5b803567ffffffffffffffff81111561062f5761062f6105cb565b604051601f8201601f19908116603f0116810167ffffffffffffffff8111828210171561065e5761065e6105cb565b604052818152828201602001861015610675575f80fd5b816020840160208301375f91810160200191909152949350505050565b5f602082840312156106a2575f80fd5b81356001600160a01b03811681146103b2575f80fd5b600181811c908216806106cc57607f821691505b6020821081036106ea57634e487b7160e01b5f52602260045260245ffd5b50919050565b5f8261070a57634e487b7160e01b5f52601260045260245ffd5b500690565b634e487b7160e01b5f52601160045260245ffd5b818103818111156107365761073661070f565b92915050565b5f82518060208501845e5f920191825250919050565b808201808211156107365761073661070f565b601f8211156107ac57805f5260205f20601f840160051c8101602085101561078a5750805b601f840160051c820191505b818110156107a9575f8155600101610796565b50505b505050565b815167ffffffffffffffff8111156107cb576107cb6105cb565b6107df816107d984546106b8565b84610765565b6020601f821160018114610811575f83156107fa5750848201515b5f19600385901b1c1916600184901b1784556107a9565b5f84815260208120601f198516915b828110156108405787850151825560209485019460019092019101610820565b508482101561085d57868401515f19600387901b60f8161c191681555b50505050600190811b01905550565b5f6001820161087d5761087d61070f565b5060010190565b838152606060208201525f61089c606083018561054c565b905082604083015294935050505056fea2646970667358221220ee34c05ca04343e0607809b00896d9d22977f9d636769405771cfc38da3f8c9764736f6c634300081a0033",
					"opcodes": "PUSH1 0x80 PUSH1 0x40 MSTORE PUSH1 0x10 PUSH1 0x1 DUP2 SWAP1 SSTORE PUSH2 0x16 SWAP1 PUSH1 0xA PUSH2 0x182 JUMP JUMPDEST PUSH1 0x2 SSTORE PUSH3 0x15180 PUSH1 0x3 SSTORE CALLVALUE DUP1 ISZERO PUSH2 0x2B JUMPI PUSH0 DUP1 REVERT JUMPDEST POP PUSH2 0x35 CALLER PUSH2 0x3A JUMP JUMPDEST PUSH2 0x194 JUMP JUMPDEST PUSH0 DUP1 SLOAD PUSH1 0x1 PUSH1 0x1 PUSH1 0xA0 SHL SUB DUP4 DUP2 AND PUSH1 0x1 PUSH1 0x1 PUSH1 0xA0 SHL SUB NOT DUP4 AND DUP2 OR DUP5 SSTORE PUSH1 0x40 MLOAD SWAP2 SWAP1 SWAP3 AND SWAP3 DUP4 SWAP2 PUSH32 0x8BE0079C531659141344CD1FD0A4F28419497F9722A3DAAFE3B4186F6B6457E0 SWAP2 SWAP1 LOG3 POP POP JUMP JUMPDEST PUSH4 0x4E487B71 PUSH1 0xE0 SHL PUSH0 MSTORE PUSH1 0x11 PUSH1 0x4 MSTORE PUSH1 0x24 PUSH0 REVERT JUMPDEST PUSH1 0x1 DUP2 JUMPDEST PUSH1 0x1 DUP5 GT ISZERO PUSH2 0xD8 JUMPI DUP1 DUP6 DIV DUP2 GT ISZERO PUSH2 0xBC JUMPI PUSH2 0xBC PUSH2 0x89 JUMP JUMPDEST PUSH1 0x1 DUP5 AND ISZERO PUSH2 0xCA JUMPI SWAP1 DUP2 MUL SWAP1 JUMPDEST PUSH1 0x1 SWAP4 SWAP1 SWAP4 SHR SWAP3 DUP1 MUL PUSH2 0xA1 JUMP JUMPDEST SWAP4 POP SWAP4 SWAP2 POP POP JUMP JUMPDEST PUSH0 DUP3 PUSH2 0xEE JUMPI POP PUSH1 0x1 PUSH2 0x17C JUMP JUMPDEST DUP2 PUSH2 0xFA JUMPI POP PUSH0 PUSH2 0x17C JUMP JUMPDEST DUP2 PUSH1 0x1 DUP2 EQ PUSH2 0x110 JUMPI PUSH1 0x2 DUP2 EQ PUSH2 0x11A JUMPI PUSH2 0x136 JUMP JUMPDEST PUSH1 0x1 SWAP2 POP POP PUSH2 0x17C JUMP JUMPDEST PUSH1 0xFF DUP5 GT ISZERO PUSH2 0x12B JUMPI PUSH2 0x12B PUSH2 0x89 JUMP JUMPDEST POP POP PUSH1 0x1 DUP3 SHL PUSH2 0x17C JUMP JUMPDEST POP PUSH1 0x20 DUP4 LT PUSH2 0x133 DUP4 LT AND PUSH1 0x4E DUP5 LT PUSH1 0xB DUP5 LT AND OR ISZERO PUSH2 0x159 JUMPI POP DUP2 DUP2 EXP PUSH2 0x17C JUMP JUMPDEST PUSH2 0x165 PUSH0 NOT DUP5 DUP5 PUSH2 0x9D JUMP JUMPDEST DUP1 PUSH0 NOT DIV DUP3 GT ISZERO PUSH2 0x178 JUMPI PUSH2 0x178 PUSH2 0x89 JUMP JUMPDEST MUL SWAP1 POP JUMPDEST SWAP3 SWAP2 POP POP JUMP JUMPDEST PUSH0 PUSH2 0x18D DUP4 DUP4 PUSH2 0xE0 JUMP JUMPDEST SWAP4 SWAP3 POP POP POP JUMP JUMPDEST PUSH2 0x8E2 DUP1 PUSH2 0x1A1 PUSH0 CODECOPY PUSH0 RETURN INVALID PUSH1 0x80 PUSH1 0x40 MSTORE CALLVALUE DUP1 ISZERO PUSH2 0xF JUMPI PUSH0 DUP1 REVERT JUMPDEST POP PUSH1 0x4 CALLDATASIZE LT PUSH2 0x60 JUMPI PUSH0 CALLDATALOAD PUSH1 0xE0 SHR DUP1 PUSH4 0x2052465E EQ PUSH2 0x64 JUMPI DUP1 PUSH4 0x528B7B8F EQ PUSH2 0x92 JUMPI DUP1 PUSH4 0x715018A6 EQ PUSH2 0xD2 JUMPI DUP1 PUSH4 0x7BFF0A01 EQ PUSH2 0xDC JUMPI DUP1 PUSH4 0x8DA5CB5B EQ PUSH2 0xEF JUMPI DUP1 PUSH4 0xF2FDE38B EQ PUSH2 0xFF JUMPI JUMPDEST PUSH0 DUP1 REVERT JUMPDEST PUSH2 0x77 PUSH2 0x72 CALLDATASIZE PUSH1 0x4 PUSH2 0x535 JUMP JUMPDEST PUSH2 0x112 JUMP JUMPDEST PUSH1 0x40 MLOAD PUSH2 0x89 SWAP7 SWAP6 SWAP5 SWAP4 SWAP3 SWAP2 SWAP1 PUSH2 0x57A JUMP JUMPDEST PUSH1 0x40 MLOAD DUP1 SWAP2 SUB SWAP1 RETURN JUMPDEST PUSH2 0xBA PUSH2 0xA0 CALLDATASIZE PUSH1 0x4 PUSH2 0x535 JUMP JUMPDEST PUSH1 0x5 PUSH1 0x20 MSTORE PUSH0 SWAP1 DUP2 MSTORE PUSH1 0x40 SWAP1 KECCAK256 SLOAD PUSH1 0x1 PUSH1 0x1 PUSH1 0xA0 SHL SUB AND DUP2 JUMP JUMPDEST PUSH1 0x40 MLOAD PUSH1 0x1 PUSH1 0x1 PUSH1 0xA0 SHL SUB SWAP1 SWAP2 AND DUP2 MSTORE PUSH1 0x20 ADD PUSH2 0x89 JUMP JUMPDEST PUSH2 0xDA PUSH2 0x1F5 JUMP JUMPDEST STOP JUMPDEST PUSH2 0xDA PUSH2 0xEA CALLDATASIZE PUSH1 0x4 PUSH2 0x5DF JUMP JUMPDEST PUSH2 0x208 JUMP JUMPDEST PUSH0 SLOAD PUSH1 0x1 PUSH1 0x1 PUSH1 0xA0 SHL SUB AND PUSH2 0xBA JUMP JUMPDEST PUSH2 0xDA PUSH2 0x10D CALLDATASIZE PUSH1 0x4 PUSH2 0x692 JUMP JUMPDEST PUSH2 0x251 JUMP JUMPDEST PUSH1 0x4 DUP2 DUP2 SLOAD DUP2 LT PUSH2 0x121 JUMPI PUSH0 DUP1 REVERT JUMPDEST SWAP1 PUSH0 MSTORE PUSH1 0x20 PUSH0 KECCAK256 SWAP1 PUSH1 0x3 MUL ADD PUSH0 SWAP2 POP SWAP1 POP DUP1 PUSH0 ADD DUP1 SLOAD PUSH2 0x140 SWAP1 PUSH2 0x6B8 JUMP JUMPDEST DUP1 PUSH1 0x1F ADD PUSH1 0x20 DUP1 SWAP2 DIV MUL PUSH1 0x20 ADD PUSH1 0x40 MLOAD SWAP1 DUP2 ADD PUSH1 0x40 MSTORE DUP1 SWAP3 SWAP2 SWAP1 DUP2 DUP2 MSTORE PUSH1 0x20 ADD DUP3 DUP1 SLOAD PUSH2 0x16C SWAP1 PUSH2 0x6B8 JUMP JUMPDEST DUP1 ISZERO PUSH2 0x1B7 JUMPI DUP1 PUSH1 0x1F LT PUSH2 0x18E JUMPI PUSH2 0x100 DUP1 DUP4 SLOAD DIV MUL DUP4 MSTORE SWAP2 PUSH1 0x20 ADD SWAP2 PUSH2 0x1B7 JUMP JUMPDEST DUP3 ADD SWAP2 SWAP1 PUSH0 MSTORE PUSH1 0x20 PUSH0 KECCAK256 SWAP1 JUMPDEST DUP2 SLOAD DUP2 MSTORE SWAP1 PUSH1 0x1 ADD SWAP1 PUSH1 0x20 ADD DUP1 DUP4 GT PUSH2 0x19A JUMPI DUP3 SWAP1 SUB PUSH1 0x1F AND DUP3 ADD SWAP2 JUMPDEST POP POP POP PUSH1 0x1 DUP5 ADD SLOAD PUSH1 0x2 SWAP1 SWAP5 ADD SLOAD SWAP3 SWAP4 SWAP3 PUSH4 0xFFFFFFFF DUP1 DUP3 AND SWAP4 POP PUSH5 0x100000000 DUP3 DIV AND SWAP2 POP PUSH2 0xFFFF PUSH1 0x1 PUSH1 0x40 SHL DUP3 DIV DUP2 AND SWAP2 PUSH1 0x1 PUSH1 0x50 SHL SWAP1 DIV AND DUP7 JUMP JUMPDEST PUSH2 0x1FD PUSH2 0x2CF JUMP JUMPDEST PUSH2 0x206 PUSH0 PUSH2 0x328 JUMP JUMPDEST JUMP JUMPDEST CALLER PUSH0 SWAP1 DUP2 MSTORE PUSH1 0x6 PUSH1 0x20 MSTORE PUSH1 0x40 SWAP1 KECCAK256 SLOAD ISZERO PUSH2 0x220 JUMPI PUSH0 DUP1 REVERT JUMPDEST PUSH0 PUSH2 0x22A DUP3 PUSH2 0x377 JUMP JUMPDEST SWAP1 POP PUSH2 0x237 PUSH1 0x64 DUP3 PUSH2 0x6F0 JUMP JUMPDEST PUSH2 0x241 SWAP1 DUP3 PUSH2 0x723 JUMP JUMPDEST SWAP1 POP PUSH2 0x24D DUP3 DUP3 PUSH2 0x3B9 JUMP JUMPDEST POP POP JUMP JUMPDEST PUSH2 0x259 PUSH2 0x2CF JUMP JUMPDEST PUSH1 0x1 PUSH1 0x1 PUSH1 0xA0 SHL SUB DUP2 AND PUSH2 0x2C3 JUMPI PUSH1 0x40 MLOAD PUSH3 0x461BCD PUSH1 0xE5 SHL DUP2 MSTORE PUSH1 0x20 PUSH1 0x4 DUP3 ADD MSTORE PUSH1 0x26 PUSH1 0x24 DUP3 ADD MSTORE PUSH32 0x4F776E61626C653A206E6577206F776E657220697320746865207A65726F2061 PUSH1 0x44 DUP3 ADD MSTORE PUSH6 0x646472657373 PUSH1 0xD0 SHL PUSH1 0x64 DUP3 ADD MSTORE PUSH1 0x84 ADD JUMPDEST PUSH1 0x40 MLOAD DUP1 SWAP2 SUB SWAP1 REVERT JUMPDEST PUSH2 0x2CC DUP2 PUSH2 0x328 JUMP JUMPDEST POP JUMP JUMPDEST PUSH0 SLOAD PUSH1 0x1 PUSH1 0x1 PUSH1 0xA0 SHL SUB AND CALLER EQ PUSH2 0x206 JUMPI PUSH1 0x40 MLOAD PUSH3 0x461BCD PUSH1 0xE5 SHL DUP2 MSTORE PUSH1 0x20 PUSH1 0x4 DUP3 ADD DUP2 SWAP1 MSTORE PUSH1 0x24 DUP3 ADD MSTORE PUSH32 0x4F776E61626C653A2063616C6C6572206973206E6F7420746865206F776E6572 PUSH1 0x44 DUP3 ADD MSTORE PUSH1 0x64 ADD PUSH2 0x2BA JUMP JUMPDEST PUSH0 DUP1 SLOAD PUSH1 0x1 PUSH1 0x1 PUSH1 0xA0 SHL SUB DUP4 DUP2 AND PUSH1 0x1 PUSH1 0x1 PUSH1 0xA0 SHL SUB NOT DUP4 AND DUP2 OR DUP5 SSTORE PUSH1 0x40 MLOAD SWAP2 SWAP1 SWAP3 AND SWAP3 DUP4 SWAP2 PUSH32 0x8BE0079C531659141344CD1FD0A4F28419497F9722A3DAAFE3B4186F6B6457E0 SWAP2 SWAP1 LOG3 POP POP JUMP JUMPDEST PUSH0 DUP1 DUP3 PUSH1 0x40 MLOAD PUSH1 0x20 ADD PUSH2 0x38A SWAP2 SWAP1 PUSH2 0x73C JUMP JUMPDEST PUSH1 0x40 MLOAD PUSH1 0x20 DUP2 DUP4 SUB SUB DUP2 MSTORE SWAP1 PUSH1 0x40 MSTORE DUP1 MLOAD SWAP1 PUSH1 0x20 ADD KECCAK256 PUSH0 SHR SWAP1 POP PUSH1 0x2 SLOAD DUP2 PUSH2 0x3B2 SWAP2 SWAP1 PUSH2 0x6F0 JUMP JUMPDEST SWAP4 SWAP3 POP POP POP JUMP JUMPDEST PUSH0 PUSH1 0x4 DUP1 SLOAD SWAP1 POP SWAP1 POP PUSH1 0x4 PUSH1 0x40 MLOAD DUP1 PUSH1 0xC0 ADD PUSH1 0x40 MSTORE DUP1 DUP6 DUP2 MSTORE PUSH1 0x20 ADD DUP5 DUP2 MSTORE PUSH1 0x20 ADD PUSH1 0x1 PUSH4 0xFFFFFFFF AND DUP2 MSTORE PUSH1 0x20 ADD PUSH1 0x3 SLOAD TIMESTAMP PUSH2 0x3F6 SWAP2 SWAP1 PUSH2 0x752 JUMP JUMPDEST PUSH4 0xFFFFFFFF AND DUP2 MSTORE PUSH0 PUSH1 0x20 DUP1 DUP4 ADD DUP3 SWAP1 MSTORE PUSH1 0x40 SWAP1 SWAP3 ADD DUP2 SWAP1 MSTORE DUP4 SLOAD PUSH1 0x1 DUP2 ADD DUP6 SSTORE SWAP4 DUP2 MSTORE KECCAK256 DUP2 MLOAD SWAP2 SWAP3 PUSH1 0x3 MUL ADD SWAP1 DUP2 SWAP1 PUSH2 0x430 SWAP1 DUP3 PUSH2 0x7B1 JUMP JUMPDEST POP PUSH1 0x20 DUP3 DUP2 ADD MLOAD PUSH1 0x1 DUP4 ADD SSTORE PUSH1 0x40 DUP1 DUP5 ADD MLOAD PUSH1 0x2 SWAP1 SWAP4 ADD DUP1 SLOAD PUSH1 0x60 DUP7 ADD MLOAD PUSH1 0x80 DUP8 ADD MLOAD PUSH1 0xA0 SWAP1 SWAP8 ADD MLOAD PUSH2 0xFFFF SWAP1 DUP2 AND PUSH1 0x1 PUSH1 0x50 SHL MUL PUSH2 0xFFFF PUSH1 0x50 SHL NOT SWAP2 SWAP1 SWAP9 AND PUSH1 0x1 PUSH1 0x40 SHL MUL AND PUSH12 0xFFFFFFFF0000000000000000 NOT PUSH4 0xFFFFFFFF SWAP3 DUP4 AND PUSH5 0x100000000 MUL PUSH8 0xFFFFFFFFFFFFFFFF NOT SWAP1 SWAP5 AND SWAP3 SWAP1 SWAP8 AND SWAP2 SWAP1 SWAP2 OR SWAP2 SWAP1 SWAP2 OR SWAP5 SWAP1 SWAP5 AND SWAP4 SWAP1 SWAP4 OR SWAP4 SWAP1 SWAP4 OR SWAP1 SWAP2 SSTORE PUSH0 DUP4 DUP2 MSTORE PUSH1 0x5 DUP3 MSTORE DUP3 DUP2 KECCAK256 DUP1 SLOAD PUSH1 0x1 PUSH1 0x1 PUSH1 0xA0 SHL SUB NOT AND CALLER SWAP1 DUP2 OR SWAP1 SWAP2 SSTORE DUP2 MSTORE PUSH1 0x6 SWAP1 SWAP2 MSTORE SWAP1 DUP2 KECCAK256 DUP1 SLOAD SWAP2 PUSH2 0x4F0 DUP4 PUSH2 0x86C JUMP JUMPDEST SWAP2 SWAP1 POP SSTORE POP PUSH32 0x88F026AACBBECC90C18411DF4B1185FD8D9BE2470F1962F192BF84A27D0704B7 DUP2 DUP5 DUP5 PUSH1 0x40 MLOAD PUSH2 0x528 SWAP4 SWAP3 SWAP2 SWAP1 PUSH2 0x884 JUMP JUMPDEST PUSH1 0x40 MLOAD DUP1 SWAP2 SUB SWAP1 LOG1 POP POP POP JUMP JUMPDEST PUSH0 PUSH1 0x20 DUP3 DUP5 SUB SLT ISZERO PUSH2 0x545 JUMPI PUSH0 DUP1 REVERT JUMPDEST POP CALLDATALOAD SWAP2 SWAP1 POP JUMP JUMPDEST PUSH0 DUP2 MLOAD DUP1 DUP5 MSTORE DUP1 PUSH1 0x20 DUP5 ADD PUSH1 0x20 DUP7 ADD MCOPY PUSH0 PUSH1 0x20 DUP3 DUP7 ADD ADD MSTORE PUSH1 0x20 PUSH1 0x1F NOT PUSH1 0x1F DUP4 ADD AND DUP6 ADD ADD SWAP2 POP POP SWAP3 SWAP2 POP POP JUMP JUMPDEST PUSH1 0xC0 DUP2 MSTORE PUSH0 PUSH2 0x58C PUSH1 0xC0 DUP4 ADD DUP10 PUSH2 0x54C JUMP JUMPDEST SWAP1 POP DUP7 PUSH1 0x20 DUP4 ADD MSTORE PUSH4 0xFFFFFFFF DUP7 AND PUSH1 0x40 DUP4 ADD MSTORE PUSH4 0xFFFFFFFF DUP6 AND PUSH1 0x60 DUP4 ADD MSTORE PUSH2 0xFFFF DUP5 AND PUSH1 0x80 DUP4 ADD MSTORE PUSH2 0xFFFF DUP4 AND PUSH1 0xA0 DUP4 ADD MSTORE SWAP8 SWAP7 POP POP POP POP POP POP POP JUMP JUMPDEST PUSH4 0x4E487B71 PUSH1 0xE0 SHL PUSH0 MSTORE PUSH1 0x41 PUSH1 0x4 MSTORE PUSH1 0x24 PUSH0 REVERT JUMPDEST PUSH0 PUSH1 0x20 DUP3 DUP5 SUB SLT ISZERO PUSH2 0x5EF JUMPI PUSH0 DUP1 REVERT JUMPDEST DUP2 CALLDATALOAD PUSH8 0xFFFFFFFFFFFFFFFF DUP2 GT ISZERO PUSH2 0x605 JUMPI PUSH0 DUP1 REVERT JUMPDEST DUP3 ADD PUSH1 0x1F DUP2 ADD DUP5 SGT PUSH2 0x615 JUMPI PUSH0 DUP1 REVERT JUMPDEST DUP1 CALLDATALOAD PUSH8 0xFFFFFFFFFFFFFFFF DUP2 GT ISZERO PUSH2 0x62F JUMPI PUSH2 0x62F PUSH2 0x5CB JUMP JUMPDEST PUSH1 0x40 MLOAD PUSH1 0x1F DUP3 ADD PUSH1 0x1F NOT SWAP1 DUP2 AND PUSH1 0x3F ADD AND DUP2 ADD PUSH8 0xFFFFFFFFFFFFFFFF DUP2 GT DUP3 DUP3 LT OR ISZERO PUSH2 0x65E JUMPI PUSH2 0x65E PUSH2 0x5CB JUMP JUMPDEST PUSH1 0x40 MSTORE DUP2 DUP2 MSTORE DUP3 DUP3 ADD PUSH1 0x20 ADD DUP7 LT ISZERO PUSH2 0x675 JUMPI PUSH0 DUP1 REVERT JUMPDEST DUP2 PUSH1 0x20 DUP5 ADD PUSH1 0x20 DUP4 ADD CALLDATACOPY PUSH0 SWAP2 DUP2 ADD PUSH1 0x20 ADD SWAP2 SWAP1 SWAP2 MSTORE SWAP5 SWAP4 POP POP POP POP JUMP JUMPDEST PUSH0 PUSH1 0x20 DUP3 DUP5 SUB SLT ISZERO PUSH2 0x6A2 JUMPI PUSH0 DUP1 REVERT JUMPDEST DUP2 CALLDATALOAD PUSH1 0x1 PUSH1 0x1 PUSH1 0xA0 SHL SUB DUP2 AND DUP2 EQ PUSH2 0x3B2 JUMPI PUSH0 DUP1 REVERT JUMPDEST PUSH1 0x1 DUP2 DUP2 SHR SWAP1 DUP3 AND DUP1 PUSH2 0x6CC JUMPI PUSH1 0x7F DUP3 AND SWAP2 POP JUMPDEST PUSH1 0x20 DUP3 LT DUP2 SUB PUSH2 0x6EA JUMPI PUSH4 0x4E487B71 PUSH1 0xE0 SHL PUSH0 MSTORE PUSH1 0x22 PUSH1 0x4 MSTORE PUSH1 0x24 PUSH0 REVERT JUMPDEST POP SWAP2 SWAP1 POP JUMP JUMPDEST PUSH0 DUP3 PUSH2 0x70A JUMPI PUSH4 0x4E487B71 PUSH1 0xE0 SHL PUSH0 MSTORE PUSH1 0x12 PUSH1 0x4 MSTORE PUSH1 0x24 PUSH0 REVERT JUMPDEST POP MOD SWAP1 JUMP JUMPDEST PUSH4 0x4E487B71 PUSH1 0xE0 SHL PUSH0 MSTORE PUSH1 0x11 PUSH1 0x4 MSTORE PUSH1 0x24 PUSH0 REVERT JUMPDEST DUP2 DUP2 SUB DUP2 DUP2 GT ISZERO PUSH2 0x736 JUMPI PUSH2 0x736 PUSH2 0x70F JUMP JUMPDEST SWAP3 SWAP2 POP POP JUMP JUMPDEST PUSH0 DUP3 MLOAD DUP1 PUSH1 0x20 DUP6 ADD DUP5 MCOPY PUSH0 SWAP3 ADD SWAP2 DUP3 MSTORE POP SWAP2 SWAP1 POP JUMP JUMPDEST DUP1 DUP3 ADD DUP1 DUP3 GT ISZERO PUSH2 0x736 JUMPI PUSH2 0x736 PUSH2 0x70F JUMP JUMPDEST PUSH1 0x1F DUP3 GT ISZERO PUSH2 0x7AC JUMPI DUP1 PUSH0 MSTORE PUSH1 0x20 PUSH0 KECCAK256 PUSH1 0x1F DUP5 ADD PUSH1 0x5 SHR DUP2 ADD PUSH1 0x20 DUP6 LT ISZERO PUSH2 0x78A JUMPI POP DUP1 JUMPDEST PUSH1 0x1F DUP5 ADD PUSH1 0x5 SHR DUP3 ADD SWAP2 POP JUMPDEST DUP2 DUP2 LT ISZERO PUSH2 0x7A9 JUMPI PUSH0 DUP2 SSTORE PUSH1 0x1 ADD PUSH2 0x796 JUMP JUMPDEST POP POP JUMPDEST POP POP POP JUMP JUMPDEST DUP2 MLOAD PUSH8 0xFFFFFFFFFFFFFFFF DUP2 GT ISZERO PUSH2 0x7CB JUMPI PUSH2 0x7CB PUSH2 0x5CB JUMP JUMPDEST PUSH2 0x7DF DUP2 PUSH2 0x7D9 DUP5 SLOAD PUSH2 0x6B8 JUMP JUMPDEST DUP5 PUSH2 0x765 JUMP JUMPDEST PUSH1 0x20 PUSH1 0x1F DUP3 GT PUSH1 0x1 DUP2 EQ PUSH2 0x811 JUMPI PUSH0 DUP4 ISZERO PUSH2 0x7FA JUMPI POP DUP5 DUP3 ADD MLOAD JUMPDEST PUSH0 NOT PUSH1 0x3 DUP6 SWAP1 SHL SHR NOT AND PUSH1 0x1 DUP5 SWAP1 SHL OR DUP5 SSTORE PUSH2 0x7A9 JUMP JUMPDEST PUSH0 DUP5 DUP2 MSTORE PUSH1 0x20 DUP2 KECCAK256 PUSH1 0x1F NOT DUP6 AND SWAP2 JUMPDEST DUP3 DUP2 LT ISZERO PUSH2 0x840 JUMPI DUP8 DUP6 ADD MLOAD DUP3 SSTORE PUSH1 0x20 SWAP5 DUP6 ADD SWAP5 PUSH1 0x1 SWAP1 SWAP3 ADD SWAP2 ADD PUSH2 0x820 JUMP JUMPDEST POP DUP5 DUP3 LT ISZERO PUSH2 0x85D JUMPI DUP7 DUP5 ADD MLOAD PUSH0 NOT PUSH1 0x3 DUP8 SWAP1 SHL PUSH1 0xF8 AND SHR NOT AND DUP2 SSTORE JUMPDEST POP POP POP POP PUSH1 0x1 SWAP1 DUP2 SHL ADD SWAP1 SSTORE POP JUMP JUMPDEST PUSH0 PUSH1 0x1 DUP3 ADD PUSH2 0x87D JUMPI PUSH2 0x87D PUSH2 0x70F JUMP JUMPDEST POP PUSH1 0x1 ADD SWAP1 JUMP JUMPDEST DUP4 DUP2 MSTORE PUSH1 0x60 PUSH1 0x20 DUP3 ADD MSTORE PUSH0 PUSH2 0x89C PUSH1 0x60 DUP4 ADD DUP6 PUSH2 0x54C JUMP JUMPDEST SWAP1 POP DUP3 PUSH1 0x40 DUP4 ADD MSTORE SWAP5 SWAP4 POP POP POP POP JUMP INVALID LOG2 PUSH5 0x6970667358 0x22 SLT KECCAK256 0xEE CALLVALUE 0xC0 TLOAD LOG0 NUMBER NUMBER 0xE0 PUSH1 0x78 MULMOD 0xB0 ADDMOD SWAP7 0xD9 0xD2 0x29 PUSH24 0xF9D636769405771CFC38DA3F8C9764736F6C634300081A00 CALLER "
				},
				"gasEstimates": {
					"creation": {
						"codeDepositCost": "454800",
						"executionCost": "92974",
						"totalCost": "547774"
					},
					"external": {
						"createRandomZombie(string)": "infinite",
						"owner()": "2395",
						"renounceOwnership()": "infinite",
						"transferOwnership(address)": "28382",
						"zombieToOwner(uint256)": "2474",
						"zombies(uint256)": "infinite"
					},
					"internal": {
						"_createZombie(string memory,uint256)": "infinite",
						"_generateRandomDna(string memory)": "infinite"
					}
				},
				"methodIdentifiers": {
					"createRandomZombie(string)": "7bff0a01",
					"owner()": "8da5cb5b",
					"renounceOwnership()": "715018a6",
					"transferOwnership(address)": "f2fde38b",
					"zombieToOwner(uint256)": "528b7b8f",
					"zombies(uint256)": "2052465e"
				}
			},
			"storageLayout": {
				"storage": [
					{
						"astId": 172,
						"contract": "contracts/ZombieFactory.sol:ZombieFactory",
						"label": "_owner",
						"offset": 0,
						"slot": "0",
						"type": "t_address"
					},
					{
						"astId": 21,
						"contract": "contracts/ZombieFactory.sol:ZombieFactory",
						"label": "dnaDigits",
						"offset": 0,
						"slot": "1",
						"type": "t_uint256"
					},
					{
						"astId": 26,
						"contract": "contracts/ZombieFactory.sol:ZombieFactory",
						"label": "dnaModulus",
						"offset": 0,
						"slot": "2",
						"type": "t_uint256"
					},
					{
						"astId": 29,
						"contract": "contracts/ZombieFactory.sol:ZombieFactory",
						"label": "cooldownTime",
						"offset": 0,
						"slot": "3",
						"type": "t_uint256"
					},
					{
						"astId": 46,
						"contract": "contracts/ZombieFactory.sol:ZombieFactory",
						"label": "zombies",
						"offset": 0,
						"slot": "4",
						"type": "t_array(t_struct(Zombie)42_storage)dyn_storage"
					},
					{
						"astId": 50,
						"contract": "contracts/ZombieFactory.sol:ZombieFactory",
						"label": "zombieToOwner",
						"offset": 0,
						"slot": "5",
						"type": "t_mapping(t_uint256,t_address)"
					},
					{
						"astId": 54,
						"contract": "contracts/ZombieFactory.sol:ZombieFactory",
						"label": "ownerZombieCount",
						"offset": 0,
						"slot": "6",
						"type": "t_mapping(t_address,t_uint256)"
					}
				],
				"types": {
					"t_address": {
						"encoding": "inplace",
						"label": "address",
						"numberOfBytes": "20"
					},
					"t_array(t_struct(Zombie)42_storage)dyn_storage": {
						"base": "t_struct(Zombie)42_storage",
						"encoding": "dynamic_array",
						"label": "struct ZombieFactory.Zombie[]",
						"numberOfBytes": "32"
					},
					"t_mapping(t_address,t_uint256)": {
						"encoding": "mapping",
						"key": "t_address",
						"label": "mapping(address => uint256)",
						"numberOfBytes": "32",
						"value": "t_uint256"
					},
					"t_mapping(t_uint256,t_address)": {
						"encoding": "mapping",
						"key": "t_uint256",
						"label": "mapping(uint256 => address)",
						"numberOfBytes": "32",
						"value": "t_address"
					},
					"t_string_storage": {
						"encoding": "bytes",
						"label": "string",
						"numberOfBytes": "32"
					},
					"t_struct(Zombie)42_storage": {
						"encoding": "inplace",
						"label": "struct ZombieFactory.Zombie",
						"members": [
							{
								"astId": 31,
								"contract": "contracts/ZombieFactory.sol:ZombieFactory",
								"label": "name",
								"offset": 0,
								"slot": "0",
								"type": "t_string_storage"
							},
							{
								"astId": 33,
								"contract": "contracts/ZombieFactory.sol:ZombieFactory",
								"label": "dna",
								"offset": 0,
								"slot": "1",
								"type": "t_uint256"
							},
							{
								"astId": 35,
								"contract": "contracts/ZombieFactory.sol:ZombieFactory",
								"label": "level",
								"offset": 0,
								"slot": "2",
								"type": "t_uint32"
							},
							{
								"astId": 37,
								"contract": "contracts/ZombieFactory.sol:ZombieFactory",
								"label": "readyTime",
								"offset": 4,
								"slot": "2",
								"type": "t_uint32"
							},
							{
								"astId": 39,
								"contract": "contracts/ZombieFactory.sol:ZombieFactory",
								"label": "winCount",
								"offset": 8,
								"slot": "2",
								"type": "t_uint16"
							},
							{
								"astId": 41,
								"contract": "contracts/ZombieFactory.sol:ZombieFactory",
								"label": "lossCount",
								"offset": 10,
								"slot": "2",
								"type": "t_uint16"
							}
						],
						"numberOfBytes": "96"
					},
					"t_uint16": {
						"encoding": "inplace",
						"label": "uint16",
						"numberOfBytes": "2"
					},
					"t_uint256": {
						"encoding": "inplace",
						"label": "uint256",
						"numberOfBytes": "32"
					},
					"t_uint32": {
						"encoding": "inplace",
						"label": "uint32",
						"numberOfBytes": "4"
					}
				}
			},
			"userdoc": {
				"kind": "user",
				"methods": {},
				"version": 1
			}
		}
	}
}