{
  "_format": "hh-sol-artifact-1",
  "contractName": "ZombieOwnership",
  "sourceName": "contracts/ZombieOwnership.sol",
  "abi": [
    {
      "inputs": [],
      "stateMutability": "nonpayable",
      "type": "constructor"
    },
    {
      "inputs": [
        {
          "internalType": "address",
          "name": "sender",
          "type": "address"
        },
        {
          "internalType": "uint256",
          "name": "tokenId",
          "type": "uint256"
        },
        {
          "internalType": "address",
          "name": "owner",
          "type": "address"
        }
      ],
      "name": "ERC721IncorrectOwner",
      "type": "error"
    },
    {
      "inputs": [
        {
          "internalType": "address",
          "name": "operator",
          "type": "address"
        },
        {
          "internalType": "uint256",
          "name": "tokenId",
          "type": "uint256"
        }
      ],
      "name": "ERC721InsufficientApproval",
      "type": "error"
    },
    {
      "inputs": [
        {
          "internalType": "address",
          "name": "approver",
          "type": "address"
        }
      ],
      "name": "ERC721InvalidApprover",
      "type": "error"
    },
    {
      "inputs": [
        {
          "internalType": "address",
          "name": "operator",
          "type": "address"
        }
      ],
      "name": "ERC721InvalidOperator",
      "type": "error"
    },
    {
      "inputs": [
        {
          "internalType": "address",
          "name": "owner",
          "type": "address"
        }
      ],
      "name": "ERC721InvalidOwner",
      "type": "error"
    },
    {
      "inputs": [
        {
          "internalType": "address",
          "name": "receiver",
          "type": "address"
        }
      ],
      "name": "ERC721InvalidReceiver",
      "type": "error"
    },
    {
      "inputs": [
        {
          "internalType": "address",
          "name": "sender",
          "type": "address"
        }
      ],
      "name": "ERC721InvalidSender",
      "type": "error"
    },
    {
      "inputs": [
        {
          "internalType": "uint256",
          "name": "tokenId",
          "type": "uint256"
        }
      ],
      "name": "ERC721NonexistentToken",
      "type": "error"
    },
    {
      "inputs": [
        {
          "internalType": "address",
          "name": "owner",
          "type": "address"
        }
      ],
      "name": "OwnableInvalidOwner",
      "type": "error"
    },
    {
      "inputs": [
        {
          "internalType": "address",
          "name": "account",
          "type": "address"
        }
      ],
      "name": "OwnableUnauthorizedAccount",
      "type": "error"
    },
    {
      "anonymous": false,
      "inputs": [
        {
          "indexed": true,
          "internalType": "address",
          "name": "owner",
          "type": "address"
        },
        {
          "indexed": true,
          "internalType": "address",
          "name": "approved",
          "type": "address"
        },
        {
          "indexed": true,
          "internalType": "uint256",
          "name": "tokenId",
          "type": "uint256"
        }
      ],
      "name": "Approval",
      "type": "event"
    },
    {
      "anonymous": false,
      "inputs": [
        {
          "indexed": true,
          "internalType": "address",
          "name": "owner",
          "type": "address"
        },
        {
          "indexed": true,
          "internalType": "address",
          "name": "operator",
          "type": "address"
        },
        {
          "indexed": false,
          "internalType": "bool",
          "name": "approved",
          "type": "bool"
        }
      ],
      "name": "ApprovalForAll",
      "type": "event"
    },
    {
      "anonymous": false,
      "inputs": [
        {
          "indexed": false,
          "internalType": "uint256",
          "name": "zombieId",
          "type": "uint256"
        },
        {
          "indexed": false,
          "internalType": "string",
          "name": "name",
          "type": "string"
        },
        {
          "indexed": false,
          "internalType": "uint256",
          "name": "dna",
          "type": "uint256"
        }
      ],
      "name": "NewZombie",
      "type": "event"
    },
    {
      "anonymous": false,
      "inputs": [
        {
          "indexed": true,
          "internalType": "address",
          "name": "previousOwner",
          "type": "address"
        },
        {
          "indexed": true,
          "internalType": "address",
          "name": "newOwner",
          "type": "address"
        }
      ],
      "name": "OwnershipTransferred",
      "type": "event"
    },
    {
      "anonymous": false,
      "inputs": [
        {
          "indexed": true,
          "internalType": "address",
          "name": "from",
          "type": "address"
        },
        {
          "indexed": true,
          "internalType": "address",
          "name": "to",
          "type": "address"
        },
        {
          "indexed": true,
          "internalType": "uint256",
          "name": "tokenId",
          "type": "uint256"
        }
      ],
      "name": "Transfer",
      "type": "event"
    },
    {
      "inputs": [
        {
          "internalType": "address",
          "name": "_to",
          "type": "address"
        },
        {
          "internalType": "uint256",
          "name": "_tokenId",
          "type": "uint256"
        }
      ],
      "name": "approve",
      "outputs": [],
      "stateMutability": "nonpayable",
      "type": "function"
    },
    {
      "inputs": [
        {
          "internalType": "uint256",
          "name": "_zombieId",
          "type": "uint256"
        },
        {
          "internalType": "uint256",
          "name": "_targetId",
          "type": "uint256"
        }
      ],
      "name": "attack",
      "outputs": [],
      "stateMutability": "nonpayable",
      "type": "function"
    },
    {
      "inputs": [
        {
          "internalType": "address",
          "name": "_owner",
          "type": "address"
        }
      ],
      "name": "balanceOf",
      "outputs": [
        {
          "internalType": "uint256",
          "name": "_balance",
          "type": "uint256"
        }
      ],
      "stateMutability": "view",
      "type": "function"
    },
    {
      "inputs": [
        {
          "internalType": "uint256",
          "name": "_zombieId",
          "type": "uint256"
        },
        {
          "internalType": "uint256",
          "name": "_newDna",
          "type": "uint256"
        }
      ],
      "name": "changeDna",
      "outputs": [],
      "stateMutability": "nonpayable",
      "type": "function"
    },
    {
      "inputs": [
        {
          "internalType": "uint256",
          "name": "_zombieId",
          "type": "uint256"
        },
        {
          "internalType": "string",
          "name": "_newName",
          "type": "string"
        }
      ],
      "name": "changeName",
      "outputs": [],
      "stateMutability": "nonpayable",
      "type": "function"
    },
    {
      "inputs": [
        {
          "internalType": "string",
          "name": "_name",
          "type": "string"
        }
      ],
      "name": "createRandomZombie",
      "outputs": [],
      "stateMutability": "nonpayable",
      "type": "function"
    },
    {
      "inputs": [
        {
          "internalType": "uint256",
          "name": "_zombieId",
          "type": "uint256"
        },
        {
          "internalType": "uint256",
          "name": "_kittyId",
          "type": "uint256"
        }
      ],
      "name": "feedOnKitty",
      "outputs": [],
      "stateMutability": "nonpayable",
      "type": "function"
    },
    {
      "inputs": [
        {
          "internalType": "uint256",
          "name": "tokenId",
          "type": "uint256"
        }
      ],
      "name": "getApproved",
      "outputs": [
        {
          "internalType": "address",
          "name": "",
          "type": "address"
        }
      ],
      "stateMutability": "view",
      "type": "function"
    },
    {
      "inputs": [
        {
          "internalType": "address",
          "name": "_owner",
          "type": "address"
        }
      ],
      "name": "getZombiesByOwner",
      "outputs": [
        {
          "internalType": "uint256[]",
          "name": "",
          "type": "uint256[]"
        }
      ],
      "stateMutability": "view",
      "type": "function"
    },
    {
      "inputs": [
        {
          "internalType": "address",
          "name": "owner",
          "type": "address"
        },
        {
          "internalType": "address",
          "name": "operator",
          "type": "address"
        }
      ],
      "name": "isApprovedForAll",
      "outputs": [
        {
          "internalType": "bool",
          "name": "",
          "type": "bool"
        }
      ],
      "stateMutability": "view",
      "type": "function"
    },
    {
      "inputs": [
        {
          "internalType": "uint256",
          "name": "_zombieId",
          "type": "uint256"
        }
      ],
      "name": "levelUp",
      "outputs": [],
      "stateMutability": "payable",
      "type": "function"
    },
    {
      "inputs": [],
      "name": "name",
      "outputs": [
        {
          "internalType": "string",
          "name": "",
          "type": "string"
        }
      ],
      "stateMutability": "view",
      "type": "function"
    },
    {
      "inputs": [],
      "name": "owner",
      "outputs": [
        {
          "internalType": "address",
          "name": "",
          "type": "address"
        }
      ],
      "stateMutability": "view",
      "type": "function"
    },
    {
      "inputs": [
        {
          "internalType": "uint256",
          "name": "_tokenId",
          "type": "uint256"
        }
      ],
      "name": "ownerOf",
      "outputs": [
        {
          "internalType": "address",
          "name": "_owner",
          "type": "address"
        }
      ],
      "stateMutability": "view",
      "type": "function"
    },
    {
      "inputs": [],
      "name": "renounceOwnership",
      "outputs": [],
      "stateMutability": "nonpayable",
      "type": "function"
    },
    {
      "inputs": [
        {
          "internalType": "address",
          "name": "from",
          "type": "address"
        },
        {
          "internalType": "address",
          "name": "to",
          "type": "address"
        },
        {
          "internalType": "uint256",
          "name": "tokenId",
          "type": "uint256"
        }
      ],
      "name": "safeTransferFrom",
      "outputs": [],
      "stateMutability": "nonpayable",
      "type": "function"
    },
    {
      "inputs": [
        {
          "internalType": "address",
          "name": "from",
          "type": "address"
        },
        {
          "internalType": "address",
          "name": "to",
          "type": "address"
        },
        {
          "internalType": "uint256",
          "name": "tokenId",
          "type": "uint256"
        },
        {
          "internalType": "bytes",
          "name": "data",
          "type": "bytes"
        }
      ],
      "name": "safeTransferFrom",
      "outputs": [],
      "stateMutability": "nonpayable",
      "type": "function"
    },
    {
      "inputs": [
        {
          "internalType": "address",
          "name": "operator",
          "type": "address"
        },
        {
          "internalType": "bool",
          "name": "approved",
          "type": "bool"
        }
      ],
      "name": "setApprovalForAll",
      "outputs": [],
      "stateMutability": "nonpayable",
      "type": "function"
    },
    {
      "inputs": [
        {
          "internalType": "address",
          "name": "_address",
          "type": "address"
        }
      ],
      "name": "setKittyContractAddress",
      "outputs": [],
      "stateMutability": "nonpayable",
      "type": "function"
    },
    {
      "inputs": [
        {
          "internalType": "uint256",
          "name": "_fee",
          "type": "uint256"
        }
      ],
      "name": "setLevelUpFee",
      "outputs": [],
      "stateMutability": "nonpayable",
      "type": "function"
    },
    {
      "inputs": [
        {
          "internalType": "bytes4",
          "name": "interfaceId",
          "type": "bytes4"
        }
      ],
      "name": "supportsInterface",
      "outputs": [
        {
          "internalType": "bool",
          "name": "",
          "type": "bool"
        }
      ],
      "stateMutability": "view",
      "type": "function"
    },
    {
      "inputs": [],
      "name": "symbol",
      "outputs": [
        {
          "internalType": "string",
          "name": "",
          "type": "string"
        }
      ],
      "stateMutability": "view",
      "type": "function"
    },
    {
      "inputs": [
        {
          "internalType": "uint256",
          "name": "_tokenId",
          "type": "uint256"
        }
      ],
      "name": "takeOwnership",
      "outputs": [],
      "stateMutability": "nonpayable",
      "type": "function"
    },
    {
      "inputs": [
        {
          "internalType": "uint256",
          "name": "tokenId",
          "type": "uint256"
        }
      ],
      "name": "tokenURI",
      "outputs": [
        {
          "internalType": "string",
          "name": "",
          "type": "string"
        }
      ],
      "stateMutability": "view",
      "type": "function"
    },
    {
      "inputs": [
        {
          "internalType": "address",
          "name": "_to",
          "type": "address"
        },
        {
          "internalType": "uint256",
          "name": "_tokenId",
          "type": "uint256"
        }
      ],
      "name": "transfer",
      "outputs": [],
      "stateMutability": "nonpayable",
      "type": "function"
    },
    {
      "inputs": [
        {
          "internalType": "address",
          "name": "from",
          "type": "address"
        },
        {
          "internalType": "address",
          "name": "to",
          "type": "address"
        },
        {
          "internalType": "uint256",
          "name": "tokenId",
          "type": "uint256"
        }
      ],
      "name": "transferFrom",
      "outputs": [],
      "stateMutability": "nonpayable",
      "type": "function"
    },
    {
      "inputs": [
        {
          "internalType": "address",
          "name": "newOwner",
          "type": "address"
        }
      ],
      "name": "transferOwnership",
      "outputs": [],
      "stateMutability": "nonpayable",
      "type": "function"
    },
    {
      "inputs": [],
      "name": "withdraw",
      "outputs": [],
      "stateMutability": "nonpayable",
      "type": "function"
    },
    {
      "inputs": [
        {
          "internalType": "uint256",
          "name": "",
          "type": "uint256"
        }
      ],
      "name": "zombieToOwner",
      "outputs": [
        {
          "internalType": "address",
          "name": "",
          "type": "address"
        }
      ],
      "stateMutability": "view",
      "type": "function"
    },
    {
      "inputs": [
        {
          "internalType": "uint256",
          "name": "",
          "type": "uint256"
        }
      ],
      "name": "zombies",
      "outputs": [
        {
          "internalType": "string",
          "name": "name",
          "type": "string"
        },
        {
          "internalType": "uint256",
          "name": "dna",
          "type": "uint256"
        },
        {
          "internalType": "uint32",
          "name": "level",
          "type": "uint32"
        },
        {
          "internalType": "uint32",
          "name": "readyTime",
          "type": "uint32"
        },
        {
          "internalType": "uint16",
          "name": "winCount",
          "type": "uint16"
        },
        {
          "internalType": "uint16",
          "name": "lossCount",
          "type": "uint16"
        }
      ],
      "stateMutability": "view",
      "type": "function"
    }
  ],
  "bytecode": "0x60806040526010600181905561001690600a610224565b6002556201518060035566038d7ea4c6800060085560006009556046600a5534801561004157600080fd5b50604080518082018252600d81526c135e48169bdb589a5948139195609a1b602080830191909152825180840190935260068352655a6f6d62696560d01b908301529033806100aa57604051631e4fbdf760e01b81526000600482015260240160405180910390fd5b6100b3816100d5565b50600b6100c083826102d6565b50600c6100cd82826102d6565b505050610394565b600080546001600160a01b038381166001600160a01b0319831681178455604051919092169283917f8be0079c531659141344cd1fd0a4f28419497f9722a3daafe3b4186f6b6457e09190a35050565b634e487b7160e01b600052601160045260246000fd5b6001815b60018411156101765780850481111561015a5761015a610125565b600184161561016857908102905b60019390931c92800261013f565b935093915050565b60008261018d5750600161021e565b8161019a5750600061021e565b81600181146101b057600281146101ba576101d6565b600191505061021e565b60ff8411156101cb576101cb610125565b50506001821b61021e565b5060208310610133831016604e8410600b84101617156101f9575081810a61021e565b610206600019848461013b565b806000190482111561021a5761021a610125565b0290505b92915050565b6000610230838361017e565b9392505050565b634e487b7160e01b600052604160045260246000fd5b600181811c9082168061026157607f821691505b60208210810361028157634e487b7160e01b600052602260045260246000fd5b50919050565b601f8211156102d157806000526020600020601f840160051c810160208510156102ae5750805b601f840160051c820191505b818110156102ce57600081556001016102ba565b50505b505050565b81516001600160401b038111156102ef576102ef610237565b610303816102fd845461024d565b84610287565b6020601f821160018114610337576000831561031f5750848201515b600019600385901b1c1916600184901b1784556102ce565b600084815260208120601f198516915b828110156103675787850151825560209485019460019092019101610347565b50848210156103855786840151600019600387901b60f8161c191681555b50505050600190811b01905550565b612454806103a36000396000f3fe6080604052600436106101cd5760003560e01c806370a08231116100f7578063b2e6ceeb11610095578063ccf670f811610064578063ccf670f814610582578063e1fa7638146105a2578063e985e9c5146105c2578063f2fde38b146105e257600080fd5b8063b2e6ceeb14610502578063b88d4fde14610522578063c39cbef114610542578063c87b56dd1461056257600080fd5b80638da5cb5b116100d15780638da5cb5b1461048f57806395d89b41146104ad578063a22cb465146104c2578063a9059cbb146104e257600080fd5b806370a0823114610416578063715018a61461045a5780637bff0a011461046f57600080fd5b806323b872dd1161016f578063528b7b8f1161013e578063528b7b8f1461036a5780635f4623f1146103a05780635faf2880146103c05780636352211e146103e057600080fd5b806323b872dd146102e85780633ccfd60b1461030857806342842e0e1461031d5780634412e1041461033d57600080fd5b8063095ea7b3116101ab578063095ea7b3146102615780630ce90ec21461028357806317a7f4cc146102965780632052465e146102b657600080fd5b806301ffc9a7146101d257806306fdde0314610207578063081812fc14610229575b600080fd5b3480156101de57600080fd5b506101f26101ed366004611c54565b610602565b60405190151581526020015b60405180910390f35b34801561021357600080fd5b5061021c610654565b6040516101fe9190611cc1565b34801561023557600080fd5b50610249610244366004611cd4565b6106e6565b6040516001600160a01b0390911681526020016101fe565b34801561026d57600080fd5b5061028161027c366004611d09565b61070f565b005b610281610291366004611cd4565b61078e565b3480156102a257600080fd5b506102816102b1366004611d33565b61081d565b3480156102c257600080fd5b506102d66102d1366004611cd4565b6108c8565b6040516101fe96959493929190611d55565b3480156102f457600080fd5b50610281610303366004611da7565b6109b2565b34801561031457600080fd5b50610281610a42565b34801561032957600080fd5b50610281610338366004611da7565b610a87565b34801561034957600080fd5b5061035d610358366004611de4565b610aa2565b6040516101fe9190611dff565b34801561037657600080fd5b50610249610385366004611cd4565b6005602052600090815260409020546001600160a01b031681565b3480156103ac57600080fd5b506102816103bb366004611de4565b610b6f565b3480156103cc57600080fd5b506102816103db366004611d33565b610b99565b3480156103ec57600080fd5b506102496103fb366004611cd4565b6000908152600560205260409020546001600160a01b031690565b34801561042257600080fd5b5061044c610431366004611de4565b6001600160a01b031660009081526006602052604090205490565b6040519081526020016101fe565b34801561046657600080fd5b50610281610c2a565b34801561047b57600080fd5b5061028161048a366004611ef2565b610c3e565b34801561049b57600080fd5b506000546001600160a01b0316610249565b3480156104b957600080fd5b5061021c610c8a565b3480156104ce57600080fd5b506102816104dd366004611f35565b610c99565b3480156104ee57600080fd5b506102816104fd366004611d09565b610ca4565b34801561050e57600080fd5b5061028161051d366004611cd4565b610cd4565b34801561052e57600080fd5b5061028161053d366004611f6c565b610d1a565b34801561054e57600080fd5b5061028161055d366004611fe8565b610d32565b34801561056e57600080fd5b5061021c61057d366004611cd4565b610dcc565b34801561058e57600080fd5b5061028161059d366004611cd4565b610e41565b3480156105ae57600080fd5b506102816105bd366004611d33565b610e4e565b3480156105ce57600080fd5b506101f26105dd36600461202f565b61102c565b3480156105ee57600080fd5b506102816105fd366004611de4565b61105a565b60006001600160e01b031982166380ac58cd60e01b148061063357506001600160e01b03198216635b5e139f60e01b145b8061064e57506301ffc9a760e01b6001600160e01b03198316145b92915050565b6060600b805461066390612062565b80601f016020809104026020016040519081016040528092919081815260200182805461068f90612062565b80156106dc5780601f106106b1576101008083540402835291602001916106dc565b820191906000526020600020905b8154815290600101906020018083116106bf57829003601f168201915b5050505050905090565b60006106f182611095565b506000828152600f60205260409020546001600160a01b031661064e565b60008181526005602052604090205481906001600160a01b0316331461073457600080fd5b60008281526011602052604080822080546001600160a01b0319166001600160a01b0387169081179091559051849233917f8c5be1e5ebec7d5bd14f71427d1e84f3dd0314c0f7b2291e5b200ac8c7c3b9259190a4505050565b600854341461079c57600080fd5b6107d86001600483815481106107b4576107b461209c565b600091825260209091206002600390920201015463ffffffff90811691906110ce16565b600482815481106107eb576107eb61209c565b906000526020600020906003020160020160006101000a81548163ffffffff021916908363ffffffff16021790555050565b60075460405163e98b7f4d60e01b8152600481018390526000916001600160a01b03169063e98b7f4d9060240161014060405180830381865afa158015610868573d6000803e3d6000fd5b505050506040513d601f19601f8201168201806040525081019061088c91906120b2565b6040805180820190915260058152646b6974747960d81b6020820152909a506108c399508c98508a975095506110f9945050505050565b505050565b600481815481106108d857600080fd5b90600052602060002090600302016000915090508060000180546108fb90612062565b80601f016020809104026020016040519081016040528092919081815260200182805461092790612062565b80156109745780601f1061094957610100808354040283529160200191610974565b820191906000526020600020905b81548152906001019060200180831161095757829003601f168201915b505050600184015460029094015492939263ffffffff8082169350640100000000820416915061ffff600160401b8204811691600160501b90041686565b6001600160a01b0382166109e157604051633250574960e11b8152600060048201526024015b60405180910390fd5b60006109ee83833361123c565b9050836001600160a01b0316816001600160a01b031614610a3c576040516364283d7b60e01b81526001600160a01b03808616600483015260248201849052821660448201526064016109d8565b50505050565b610a4a611335565b600080546040516001600160a01b03909116914780156108fc02929091818181858888f19350505050158015610a84573d6000803e3d6000fd5b50565b6108c383838360405180602001604052806000815250610d1a565b6001600160a01b0381166000908152600660205260408120546060919067ffffffffffffffff811115610ad757610ad7611e42565b604051908082528060200260200182016040528015610b00578160200160208202803683370190505b5090506000805b600454811015610b66576000818152600560205260409020546001600160a01b03808716911603610b5e5780838381518110610b4557610b4561209c565b602090810291909101015281610b5a81612181565b9250505b600101610b07565b50909392505050565b610b77611335565b600780546001600160a01b0319166001600160a01b0392909216919091179055565b6014828160048281548110610bb057610bb061209c565b600091825260209091206002600390920201015463ffffffff161015610bd557600080fd5b60008481526005602052604090205484906001600160a01b03163314610bfa57600080fd5b8360048681548110610c0e57610c0e61209c565b9060005260206000209060030201600101819055505050505050565b610c32611335565b610c3c6000611362565b565b3360009081526006602052604090205415610c5857600080fd5b6000610c63826113b2565b9050610c706064826121b0565b610c7a90826121c4565b9050610c8682826113ef565b5050565b6060600c805461066390612062565b610c8633838361157e565b60008181526005602052604090205481906001600160a01b03163314610cc957600080fd5b6108c333848461161d565b6000818152601160205260409020546001600160a01b03163314610cf757600080fd5b6000818152600560205260409020546001600160a01b0316610c8681338461161d565b610d258484846109b2565b610a3c33858585856116dc565b6002828160048281548110610d4957610d4961209c565b600091825260209091206002600390920201015463ffffffff161015610d6e57600080fd5b60008481526005602052604090205484906001600160a01b03163314610d9357600080fd5b8360048681548110610da757610da761209c565b90600052602060002090600302016000019081610dc4919061221e565b505050505050565b6060610dd782611095565b506000610def60408051602081019091526000815290565b90506000815111610e0f5760405180602001604052806000815250610e3a565b80610e1984611805565b604051602001610e2a9291906122dd565b6040516020818303038152906040525b9392505050565b610e49611335565b600855565b60008281526005602052604090205482906001600160a01b03163314610e7357600080fd5b600060048481548110610e8857610e8861209c565b90600052602060002090600302019050600060048481548110610ead57610ead61209c565b906000526020600020906003020190506000610ec96064611898565b9050600a548111610fb5576002830154610eef90600160401b900461ffff166001611902565b60028401805461ffff92909216600160401b0269ffff00000000000000001983168117909155610f2f9163ffffffff91821690821617906001906110ce16565b6002848101805463ffffffff191663ffffffff938416179055830154610f6591600160501b90910461ffff169060019061190216565b82600201600a6101000a81548161ffff021916908361ffff160217905550610fb0868360010154604051806040016040528060068152602001657a6f6d62696560d01b8152506110f9565b610dc4565b6002830154610fd090600160501b900461ffff166001611902565b6002848101805461ffff60501b1916600160501b61ffff9485160217905583015461100591600160401b909104166001611902565b8260020160086101000a81548161ffff021916908361ffff160217905550610dc483611929565b6001600160a01b03918216600090815260106020908152604080832093909416825291909152205460ff1690565b611062611335565b6001600160a01b03811661108c57604051631e4fbdf760e01b8152600060048201526024016109d8565b610a8481611362565b6000818152600d60205260408120546001600160a01b03168061064e57604051637e27328960e01b8152600481018490526024016109d8565b6000806110db838561230c565b90508363ffffffff168163ffffffff161015610e3a57610e3a612328565b60008381526005602052604090205483906001600160a01b0316331461111e57600080fd5b6000600485815481106111335761113361209c565b9060005260206000209060030201905061116381600201544263ffffffff64010000000090920491909116111590565b61116c57600080fd5b60025461117990856121b0565b93506000600285836001015461118f919061233e565b6111999190612351565b90507f8d53323b21b9f304546f6d3e61cde865451064d614aa4912f395b755a9d8cad9846040516020016111cd9190612365565b604051602081830303815290604052805190602001200361120b576111f36064826121b0565b6111fd90826121c4565b61120890606361233e565b90505b611233604051806040016040528060068152602001654e6f4e616d6560d01b815250826113ef565b610dc482611929565b6000828152600d60205260408120546001600160a01b03908116908316156112695761126981848661195b565b6001600160a01b038116156112a7576112866000856000806119bf565b6001600160a01b0381166000908152600e6020526040902080546000190190555b6001600160a01b038516156112d6576001600160a01b0385166000908152600e60205260409020805460010190555b6000848152600d602052604080822080546001600160a01b0319166001600160a01b0389811691821790925591518793918516917fddf252ad1be2c89b69c2b068fc378daa952ba7f163c4a11628f55a4df523b3ef91a4949350505050565b6000546001600160a01b03163314610c3c5760405163118cdaa760e01b81523360048201526024016109d8565b600080546001600160a01b038381166001600160a01b0319831681178455604051919092169283917f8be0079c531659141344cd1fd0a4f28419497f9722a3daafe3b4186f6b6457e09190a35050565b600080826040516020016113c69190612365565b6040516020818303038152906040528051906020012060001c905060025481610e3a91906121b0565b6000600480549050905060046040518060c00160405280858152602001848152602001600163ffffffff1681526020016003544261142d919061233e565b63ffffffff1681526000602080830182905260409092018190528354600181018555938152208151919260030201908190611468908261221e565b50602082810151600180840191909155604080850151600290940180546060870151608088015160a09098015161ffff908116600160501b0261ffff60501b1991909916600160401b02166bffffffff00000000000000001963ffffffff9283166401000000000267ffffffffffffffff19909416988316989098179290921796909616179590951790945560008581526005835284812080546001600160a01b03191633908117909155815260069092529290205461152a929091611ac516565b336000908152600660205260409081902091909155517f88f026aacbbecc90c18411df4b1185fd8d9be2470f1962f192bf84a27d0704b79061157190839086908690612381565b60405180910390a1505050565b6001600160a01b0382166115b057604051630b61174360e31b81526001600160a01b03831660048201526024016109d8565b6001600160a01b03838116600081815260106020908152604080832094871680845294825291829020805460ff191686151590811790915591519182527f17307eab39ab6107e8899845ad3d59bd9653f200f220920489ca2b5937696c31910160405180910390a3505050565b6001600160a01b038216600090815260066020526040902054611641906001611ac5565b6001600160a01b03831660009081526006602052604080822092909255338152205461166e906001611ae4565b336000908152600660209081526040808320939093558382526005905281812080546001600160a01b0319166001600160a01b038681169182179092559251849392918716917fddf252ad1be2c89b69c2b068fc378daa952ba7f163c4a11628f55a4df523b3ef91a4505050565b6001600160a01b0383163b156117fe57604051630a85bd0160e11b81526001600160a01b0384169063150b7a029061171e9088908890879087906004016123aa565b6020604051808303816000875af1925050508015611759575060408051601f3d908101601f19168201909252611756918101906123e7565b60015b6117c2573d808015611787576040519150601f19603f3d011682016040523d82523d6000602084013e61178c565b606091505b5080516000036117ba57604051633250574960e11b81526001600160a01b03851660048201526024016109d8565b805181602001fd5b6001600160e01b03198116630a85bd0160e11b14610dc457604051633250574960e11b81526001600160a01b03851660048201526024016109d8565b5050505050565b6060600061181283611b00565b600101905060008167ffffffffffffffff81111561183257611832611e42565b6040519080825280601f01601f19166020018201604052801561185c576020820181803683370190505b5090508181016020015b600019016f181899199a1a9b1b9c1cb0b131b232b360811b600a86061a8153600a850494508461186657509392505050565b6009546000906118a9906001611ac5565b6009819055604080514260208201526bffffffffffffffffffffffff193360601b1691810191909152605481019190915282906074016040516020818303038152906040528051906020012060001c61064e91906121b0565b60008061190f8385612404565b90508361ffff168161ffff161015610e3a57610e3a612328565b600354611936904261233e565b8160020160046101000a81548163ffffffff021916908363ffffffff16021790555050565b611966838383611bd8565b6108c3576001600160a01b03831661199457604051637e27328960e01b8152600481018290526024016109d8565b60405163177e802f60e01b81526001600160a01b0383166004820152602481018290526044016109d8565b80806119d357506001600160a01b03821615155b15611a955760006119e384611095565b90506001600160a01b03831615801590611a0f5750826001600160a01b0316816001600160a01b031614155b8015611a225750611a20818461102c565b155b15611a4b5760405163a9fbf51f60e01b81526001600160a01b03841660048201526024016109d8565b8115611a935783856001600160a01b0316826001600160a01b03167f8c5be1e5ebec7d5bd14f71427d1e84f3dd0314c0f7b2291e5b200ac8c7c3b92560405160405180910390a45b505b50506000908152600f6020526040902080546001600160a01b0319166001600160a01b0392909216919091179055565b600080611ad2838561233e565b905083811015610e3a57610e3a612328565b600082821115611af657611af6612328565b610e3a82846121c4565b60008072184f03e93ff9f4daa797ed6e38ed64bf6a1f0160401b8310611b3f5772184f03e93ff9f4daa797ed6e38ed64bf6a1f0160401b830492506040015b6d04ee2d6d415b85acef81000000008310611b6b576d04ee2d6d415b85acef8100000000830492506020015b662386f26fc100008310611b8957662386f26fc10000830492506010015b6305f5e1008310611ba1576305f5e100830492506008015b6127108310611bb557612710830492506004015b60648310611bc7576064830492506002015b600a831061064e5760010192915050565b60006001600160a01b03831615801590611c365750826001600160a01b0316846001600160a01b03161480611c125750611c12848461102c565b80611c3657506000828152600f60205260409020546001600160a01b038481169116145b949350505050565b6001600160e01b031981168114610a8457600080fd5b600060208284031215611c6657600080fd5b8135610e3a81611c3e565b60005b83811015611c8c578181015183820152602001611c74565b50506000910152565b60008151808452611cad816020860160208601611c71565b601f01601f19169290920160200192915050565b602081526000610e3a6020830184611c95565b600060208284031215611ce657600080fd5b5035919050565b80356001600160a01b0381168114611d0457600080fd5b919050565b60008060408385031215611d1c57600080fd5b611d2583611ced565b946020939093013593505050565b60008060408385031215611d4657600080fd5b50508035926020909101359150565b60c081526000611d6860c0830189611c95565b905086602083015263ffffffff8616604083015263ffffffff8516606083015261ffff8416608083015261ffff831660a0830152979650505050505050565b600080600060608486031215611dbc57600080fd5b611dc584611ced565b9250611dd360208501611ced565b929592945050506040919091013590565b600060208284031215611df657600080fd5b610e3a82611ced565b602080825282518282018190526000918401906040840190835b81811015611e37578351835260209384019390920191600101611e19565b509095945050505050565b634e487b7160e01b600052604160045260246000fd5b60008067ffffffffffffffff841115611e7357611e73611e42565b50604051601f19601f85018116603f0116810181811067ffffffffffffffff82111715611ea257611ea2611e42565b604052838152905080828401851015611eba57600080fd5b83836020830137600060208583010152509392505050565b600082601f830112611ee357600080fd5b610e3a83833560208501611e58565b600060208284031215611f0457600080fd5b813567ffffffffffffffff811115611f1b57600080fd5b611c3684828501611ed2565b8015158114610a8457600080fd5b60008060408385031215611f4857600080fd5b611f5183611ced565b91506020830135611f6181611f27565b809150509250929050565b60008060008060808587031215611f8257600080fd5b611f8b85611ced565b9350611f9960208601611ced565b925060408501359150606085013567ffffffffffffffff811115611fbc57600080fd5b8501601f81018713611fcd57600080fd5b611fdc87823560208401611e58565b91505092959194509250565b60008060408385031215611ffb57600080fd5b82359150602083013567ffffffffffffffff81111561201957600080fd5b61202585828601611ed2565b9150509250929050565b6000806040838503121561204257600080fd5b61204b83611ced565b915061205960208401611ced565b90509250929050565b600181811c9082168061207657607f821691505b60208210810361209657634e487b7160e01b600052602260045260246000fd5b50919050565b634e487b7160e01b600052603260045260246000fd5b6000806000806000806000806000806101408b8d0312156120d257600080fd5b8a516120dd81611f27565b60208c0151909a506120ee81611f27565b80995050600060408c0151905080985050600060608c0151905080975050600060808c0151905080965050600060a08c0151905080955050600060c08c0151905080945050600060e08c015190508093505060006101008c015190508092505060006101208c01519050809150509295989b9194979a5092959850565b634e487b7160e01b600052601160045260246000fd5b6000600182016121935761219361216b565b5060010190565b634e487b7160e01b600052601260045260246000fd5b6000826121bf576121bf61219a565b500690565b8181038181111561064e5761064e61216b565b601f8211156108c357806000526020600020601f840160051c810160208510156121fe5750805b601f840160051c820191505b818110156117fe576000815560010161220a565b815167ffffffffffffffff81111561223857612238611e42565b61224c816122468454612062565b846121d7565b6020601f82116001811461228057600083156122685750848201515b600019600385901b1c1916600184901b1784556117fe565b600084815260208120601f198516915b828110156122b05787850151825560209485019460019092019101612290565b50848210156122ce5786840151600019600387901b60f8161c191681555b50505050600190811b01905550565b600083516122ef818460208801611c71565b835190830190612303818360208801611c71565b01949350505050565b63ffffffff818116838216019081111561064e5761064e61216b565b634e487b7160e01b600052600160045260246000fd5b8082018082111561064e5761064e61216b565b6000826123605761236061219a565b500490565b60008251612377818460208701611c71565b9190910192915050565b83815260606020820152600061239a6060830185611c95565b9050826040830152949350505050565b6001600160a01b03858116825284166020820152604081018390526080606082018190526000906123dd90830184611c95565b9695505050505050565b6000602082840312156123f957600080fd5b8151610e3a81611c3e565b61ffff818116838216019081111561064e5761064e61216b56fea264697066735822122016b674e0d41fe01190c3e9c6383ca922559da034120f7793efdd9fc73692b9b164736f6c634300081c0033",
  "linkReferences": {},
  "deployedLinkReferences": {}
}